:100000000C945D000C9485000C9485000C94850084
:100010000C9485000C9485000C9485000C9485004C
:100020000C9485000C9485000C9485000C9485003C
:100030000C9485000C9485000C9485000C9485002C
:100040000C943D040C9485000C940B040C94E50373
:100050000C9485000C9485000C9485000C9485000C
:100060000C9485000C94850000000008000201003B
:100070000003040700000000000000000000000072
:10008000250028002B0000000000240027002A0083
:10009000040404040404040402020202020203032E
:1000A0000303030301020408102040800102040836
:1000B0001020010204081020870411241FBECFEF76
:1000C000D8E0DEBFCDBF22E0AEE3B1E001C01D92BB
:1000D000AF34B207E1F711E0A0E0B1E0EEE3F0E108
:1000E00002C005900D92AE33B107D9F710E0CDE50F
:1000F000D0E004C02197FE010E941208CC35D10740
:10010000C9F70E94E1040C941D080C94000090E0D3
:10011000FC01EC55FF4F2491FC01E057FF4F849107
:10012000882399F090E0880F991FFC01EA57FF4F50
:10013000A591B491FC01E458FF4F859194918FB73C
:10014000F894EC91E22BEC938FBF0895ECE5F1E08D
:10015000A089B18982E08C93A485B5851C92A6857F
:10016000B78580E18C93108EA489B58986E08C9345
:10017000A289B3898C9180618C93A289B3898C9177
:1001800088608C93A289B3898C9180688C93028853
:10019000F389E02D80818F7D80830895CF92DF9257
:1001A000EF92FF920F931F93CF93DF936C017A012D
:1001B0008B01C0E0D0E0CE15DF0589F0D8016D914C
:1001C0008D01D601ED91FC910190F081E02DC601E9
:1001D0000995892B11F47E0102C02196ECCFC7014D
:1001E000DF91CF911F910F91FF90EF90DF90CF9013
:1001F0000895089580E090E00895FC01538D448DAA
:10020000252F30E0842F90E0821B930B541710F0C1
:10021000CF96089501970895FC01918D828D9817CE
:1002200061F0828DDF01A80FB11D5D968C91928DDA
:100230009F5F9F73928F90E008958FEF9FEF0895D7
:10024000FC01918D828D981731F0828DE80FF11DA0
:10025000858D90E008958FEF9FEF0895FC01918DBB
:10026000228D892F90E0805C9F4F821B91098F73B4
:10027000992708958CE591E00E942E0121E0892BB9
:1002800009F420E0822F0895FC01848DDF01A80F7E
:10029000B11DA35ABF4F2C91848D90E001968F73AE
:1002A0009927848FA689B7892C93A089B1898C91CD
:1002B00080648C93938D848D981306C00288F38993
:1002C000E02D80818F7D80830895EF92FF920F93C0
:1002D0001F93CF93DF93EC0181E0888F9B8D8C8DF2
:1002E000981305C0E889F989808185FD24C0F62E20
:1002F0000B8D10E00F5F1F4F0F731127E02E8C8DB9
:10030000E8120CC00FB607FCFACFE889F9898081A2
:1003100085FFF5CFCE010E944401F1CF8B8DFE0108
:10032000E80FF11DE35AFF4FF0820B8FEA89FB893A
:100330008081806207C0EE89FF896083E889F9893E
:1003400080818064808381E090E0DF91CF911F9174
:100350000F91FF90EF900895CF93DF93EC01888D7C
:100360008823C9F0EA89FB89808185FD05C0A889B9
:10037000B9898C9186FD0FC00FB607FCF5CF80813F
:1003800085FFF2CFA889B9898C9185FFEDCFCE0189
:100390000E944401E7CFDF91CF91089580E090E083
:1003A000892B29F00E943A0181110C9400000895D4
:1003B00090E0FC01E859FF4F3491FC01EC55FF4FF0
:1003C0002491FC01E057FF4FE491EE2309F43BC078
:1003D000332339F1333091F038F43130A9F0323031
:1003E00001F584B58F7D12C0373091F03830A1F01F
:1003F0003430B9F4809180008F7D03C080918000FB
:100400008F77809380000DC084B58F7784BD09C03D
:100410008091B0008F7703C08091B0008F7D809372
:10042000B000F0E0EE0FFF1FE458FF4FA591B4912C
:100430008FB7F894EC91611103C020952E2301C071
:100440002E2B2C938FBF08953FB7F89480914301D2
:1004500090914401A0914501B091460126B5A89B19
:1004600005C02F3F19F00196A11DB11D3FBFBA2F46
:10047000A92F982F8827820F911DA11DB11DBC01A6
:10048000CD0142E0660F771F881F991F4A95D1F76B
:1004900008952FB7F89460913F01709140018091C9
:1004A0004101909142012FBF08958F929F92AF9288
:1004B000BF92CF92DF92EF92FF926B017C010E947C
:1004C00049024B015C01C60ED71EE81EF91E0E94B0
:1004D0004902681579058A059B0528F0C616D706D6
:1004E000E806F906A0F7FF90EF90DF90CF90BF905D
:1004F000AF909F908F9008958EBD00000DB407FEC1
:10050000FDCF8EB508950F931F93CF93DF93C82F20
:10051000D62F01E412E060E0F80182850E94D80144
:100520008C2F880F8E770E947C028D2F0E947C0278
:1005300061E0F8018285DF91CF911F910F910C94BA
:10054000D8010F931F93CF93C82F01E412E060E00E
:10055000F80182850E94D8018C2F880F8E778068E1
:100560000E947C0280E00E947C02C82F61E0F801BA
:1005700082850E94D8018C2FCF911F910F910895F1
:100580001F93CF93DF931F92CDB7DEB7182F6983E8
:100590000E94A1026981682B812F0F90DF91CF917A
:1005A0001F910C9483021F93CF93DF931F92CDB7BB
:1005B000DEB7182F69830E94A102698160956823C4
:1005C000812F0F90DF91CF911F910C9483028F9216
:1005D0009F92AF92BF92CF92DF92EF92FF920F93D2
:1005E0001F93CF93DF931F92CDB7DEB75C01C62E6A
:1005F0004A01890167EF82E00E94830260E884E09B
:100600000E94D30260E88AE00E94C00260E081E0BC
:100610000E9483027501D12CC7018A199B098C1590
:100620009D0538F4F70161917F0189E00E94830202
:10063000F3CF6CE081E00E94830260E88DE00E94CD
:10064000C00230EDC32E37E0D32E84E00E94A10219
:10065000F82EF1E0CF1AD10811F08173B1F360E800
:100660008DE00E94D302CD2811F482E03EC086E0E6
:100670000E94A1028B71C9F78AE00E94A102982F03
:100680008CE099830E94A10287709981692F70E0A4
:10069000882351F06150710923E0660F771F2A9576
:1006A000E1F7680F711D05C083E0660F771F8A951B
:1006B000E1F7F80171836083992321F0913118F0FB
:1006C00090E101C091E06401092F10E0C601881992
:1006D00099098017910738F489E00E94A102F60178
:1006E00081936F01F3CF8F2D81700F90DF91CF91A8
:1006F0001F910F91FF90EF90DF90CF90BF90AF9040
:100700009F908F9008950E9418086115710579F0E7
:10071000FB0101900020E9F73197AF01461B570B11
:10072000DC01ED91FC910280F381E02D099480E0E1
:1007300090E008954F925F926F927F92EF92FF92B6
:100740000F931F93CF93DF93CDB7DEB7A1970FB66B
:10075000F894DEBF0FBECDBF7C01FA01CB0119A218
:10076000223008F42AE08E010F5D1F4F422E512CDB
:10077000612C712CBF01A30192010E94F007F901C5
:10078000CA01015011096A3014F4605D01C0695C4E
:10079000D8016C93232B242B252B61F7B801C701BB
:1007A0000E948503A1960FB6F894DEBF0FBECDBFA1
:1007B000DF91CF911F910F91FF90EF907F906F90FD
:1007C0005F904F9008950C9485031F920F920FB67F
:1007D0000F9211242F933F934F935F936F937F93C7
:1007E0008F939F93AF93BF93EF93FF938CE591E02B
:1007F0000E944401FF91EF91BF91AF919F918F9122
:100800007F916F915F914F913F912F910F900FBE0C
:100810000F901F9018951F920F920FB60F921124F0
:100820002F938F939F93EF93FF93E0916C01F0913F
:100830006D018081E0917201F091730182FD12C01F
:100840009081809175018F5F8F732091760182175F
:1008500051F0E0917501F0E0E45AFE4F958F8093DE
:10086000750101C08081FF91EF919F918F912F9130
:100870000F900FBE0F901F9018951F920F920FB6FA
:100880000F9211242F933F938F939F93AF93BF9316
:1008900080913F0190914001A0914101B0914201AE
:1008A00030913E0123E0230F2D3720F40196A11D46
:1008B000B11D05C026E8230F0296A11DB11D20938E
:1008C0003E0180933F0190934001A0934101B0937A
:1008D00042018091430190914401A0914501B09162
:1008E00046010196A11DB11D8093430190934401DF
:1008F000A0934501B0934601BF91AF919F918F9115
:100900003F912F910F900FBE0F901F901895CF938E
:10091000DF93ECE5F1E01382128288EE93E0A0E031
:10092000B0E084839583A683B78384E091E09183CC
:10093000808385EC90E09587848784EC90E09787AE
:10094000868780EC90E0918B808B81EC90E0938B9C
:10095000828B82EC90E0958B848B86EC90E0978B79
:10096000868B118E128E138E148EE9EFF1E01682B3
:1009700017821086118612861386148615861686AF
:100980001786108A118A128A138A148A158AC1E47A
:10099000D2E08AE090E09B878A870E94870060E02F
:1009A0008A850E94D80189E00E94870061E089E081
:1009B0000E94D80189E090E09D878C87DF91CF91DC
:1009C0000895CF93DF93CDB7DEB762970FB6F89453
:1009D000DEBF0FBECDBF789484B5826084BD84B580
:1009E000816084BD85B5826085BD85B5816085BD2A
:1009F00080916E00816080936E00109281008091E2
:100A00008100826080938100809181008160809369
:100A10008100809180008160809380008091B1008E
:100A200084608093B1008091B00081608093B000B9
:100A300080917A00846080937A0080917A0082604D
:100A400080937A0080917A00816080937A0080910F
:100A50007A00806880937A001092C10010923D0263
:100A600010923E0210923F02109240021092FB013F
:100A70001092FC011092FD011092FE0168EB7BE0E8
:100A800080E090E00E9455028CE591E090933C025A
:100A900080933B020E94A6000E9449026093FB01E2
:100AA0007093FC018093FD019093FE0162E171E07F
:100AB00080913B0290913C020E94E3036AE070E067
:100AC00080E090E00E94550281E080930F020E9436
:100AD000A6001FB7F89480914701811124C0EAE96C
:100AE000F0E08491EEEAF0E09491E82FF0E0EE0F70
:100AF000FF1FEA57FF4FA591B491EC91E92321F430
:100B000061E08AE00E94D8018AE00E9487008CB5EB
:100B100080618CBD8CB580648CBD8DE00E948700A7
:100B20008BE00E948700809147018F5F809347018F
:100B30001FBF61E080914D020E94D8016FE081E00B
:100B40000E9483026DE88AE20E9483026EE38BE2D8
:100B50000E9483026EE18DE20E94830260E08CE2DB
:100B60000E94830260E485E10E9483026DE381E1DB
:100B70000E94830284E10E94A102837021F463E059
:100B800084E10E94C00294EFC92EDD24D394E12CAD
:100B9000F12C26E2322E33E9232E0E944902672BE4
:100BA000682B692B41F40E9449026230710581056E
:100BB000910508F40AC10E9449026093580170939C
:100BC000590180935A0190935B0100915401109157
:100BD0005501209156013091570160177107820726
:100BE000930740F46093540170935501809356012C
:100BF0009093570100915401109155012091560195
:100C0000309157014B015C01801A910AA20AB30A84
:100C1000950184010A3F11052105310508F4D5C06D
:100C2000609354017093550180935601909357013E
:100C3000C0920702D0920802E0920902F0920A02E2
:100C400010920B0210920C0210920D0210920E02E2
:100C50008091FF0190910002A0910102B0910202E7
:100C60008093030290930402A0930502B0930602BE
:100C70000E9449026093FF01709300028093010279
:100C8000909302020E9449026093FB017093FC0161
:100C90008093FD019093FE010E9449024B015C018B
:100CA00064E271E080913B0290913C020E94E30378
:100CB0002AE041E050E060E070E080913B029091DA
:100CC0003C020E949A036BE271E080913B0290919A
:100CD0003C020E94E3032AE0B501A40180913B029B
:100CE00090913C020E949A036DE271E080913B0278
:100CF00090913C020E94E3038091FF0190910002D9
:100D0000A0910102B0910202B501A401481B590B48
:100D10006A0B7B0B2AE080913B0290913C020E947F
:100D20009A036DE271E080913B0290913C020E9437
:100D3000E3034091FF015091000260910102709124
:100D400002028091030290910402A0910502B091E9
:100D50000602481B590B6A0B7B0B2AE080913B0271
:100D600090913C020E949A036FE271E080913B02F5
:100D700090913C020E94E3030E944902AB01BC0136
:100D80002AE080913B0290913C020E949A030091DC
:100D90003B0210913C0261E371E0C8010E948503AF
:100DA00061E271E0C8010E94850365E070E080E0C7
:100DB00090E00E9455020E9449026093FF017093E7
:100DC0000002809301029093020267E08DE00E948E
:100DD000830239829E012F5E3F4FAE014F5F5F4F0E
:100DE00061E0CA010E94E7028111C9C089899A891C
:100DF000409709F0C4C060E08DE00E948302298220
:100E000080E2982E9A829E012F5E3F4FAE014F5F87
:100E10005F4F62E0CA010E94E70281110AC02A8185
:100E2000998192272B8192272C8192272D819213D1
:100E300082E0FE013196A1E4B2E095E001900D92CE
:100E40009A95E1F7811158C0A1E4B2E0EAE4F1E03B
:100E50008D9190E08193919321E0E435F207C1F701
:100E600080914A0190914B018539910519F5809146
:100E70004C0190914D01833C9105F1F580914E011B
:100E800090914F018A3F9105B9F580915001909161
:100E90005101823C910581F580915201909153015D
:100EA0008E36910549F581E090E090934901809359
:100EB000480122C0803D9105F9F480914C01909148
:100EC0004D01823E9105C1F480914E0190914F01F8
:100ED000893A910589F480915001909151014B9785
:100EE00059F480915201909153018038910521F479
:100EF0001092490110924801809148019091490156
:100F00008130910519F468E371E004C0892B31F454
:100F10006BE371E08CE591E00E94E30390E5998337
:100F20001A8264E085E00E94D30260E88AE00E94B1
:100F3000C002698189E00E9483026A8189E00E947F
:100F4000830263E081E00E9483021FEF85E00E943C
:100F5000A102115011F082FFF9CF82E20E94A1029A
:100F60008B8381E20E94A1028C839E012F5E3F4F02
:100F7000AE014F5F5F4F64E0CA010E94E7020E942A
:100F800024024B015C0188EE93E0A0E0B0E02C016C
:100F90003D010E942402DC01CB0188199909AA09AC
:100FA000BB09883E9340A105B10588F021E0421AB3
:100FB00051086108710888EE880E83E0981EA11C14
:100FC000B11C411451046104710419F706C0D30126
:100FD000C201452846284728D1F60E94CE01DDCD22
:100FE000A1E21A2EAA1BBB1BFD010DC0AA1FBB1F2D
:100FF000EE1FFF1FA217B307E407F50720F0A21B9F
:10100000B30BE40BF50B661F771F881F991F1A940B
:1010100069F760957095809590959B01AC01BD0135
:10102000CF010895EE0FFF1F0590F491E02D099474
:0E10300081E090E0F8940C941D08F894FFCF36
:10103E00000000006501CE00FD00AC012E010C0188
:10104E002001564D4450565F317C315F564D445011
:10105E00560D0A00564D4450455F003A323A007C18
:0E106E00005F564D44504500243000243100F0
:107E0000112484B714BE81FFF0D085E080938100F7
:107E100082E08093C00088E18093C10086E0809377
:107E2000C20080E18093C4008EE0C9D0259A86E02C
:107E300020E33CEF91E0309385002093840096BBD3
:107E4000B09BFECF1D9AA8958150A9F7CC24DD24C4
:107E500088248394B5E0AB2EA1E19A2EF3E0BF2EE7
:107E6000A2D0813461F49FD0082FAFD0023811F036
:107E7000013811F484E001C083E08DD089C08234E0
:107E800011F484E103C0853419F485E0A6D080C0E4
:107E9000853579F488D0E82EFF2485D0082F10E0AE
:107EA000102F00270E291F29000F111F8ED06801E7
:107EB0006FC0863521F484E090D080E0DECF843638
:107EC00009F040C070D06FD0082F6DD080E0C81688
:107ED00080E7D80618F4F601B7BEE895C0E0D1E017
:107EE00062D089930C17E1F7F0E0CF16F0E7DF06D8
:107EF00018F0F601B7BEE89568D007B600FCFDCFD4
:107F0000A601A0E0B1E02C9130E011968C91119780
:107F100090E0982F8827822B932B1296FA010C0160
:107F200087BEE89511244E5F5F4FF1E0A038BF0790
:107F300051F7F601A7BEE89507B600FCFDCF97BE46
:107F4000E89526C08437B1F42ED02DD0F82E2BD052
:107F50003CD0F601EF2C8F010F5F1F4F84911BD097
:107F6000EA94F801C1F70894C11CD11CFA94CF0C13
:107F7000D11C0EC0853739F428D08EE10CD085E9AC
:107F80000AD08FE07ACF813511F488E018D01DD067
:107F900080E101D065CF982F8091C00085FFFCCF94
:107FA0009093C60008958091C00087FFFCCF809118
:107FB000C00084FD01C0A8958091C6000895E0E648
:107FC000F0E098E1908380830895EDDF803219F02E
:107FD00088E0F5DFFFCF84E1DECF1F93182FE3DFCA
:107FE0001150E9F7F2DF1F91089580E0E8DFEE27F6
:047FF000FF270994CA
:027FFE00040479
:0400000300007E007B
:00000001FF