:100000000C9462000C948A000C948A000C948A0070
:100010000C948A000C948A000C948A000C948A0038
:100020000C948A000C948A000C948A000C94940717
:100030000C948A000C948A000C948A000C948A0018
:100040000C9443040C948A000C941F030C94F90242
:100050000C948A000C948A000C948A000C948A00F8
:100060000C948D040C948A000000000024002700EA
:100070002A0000000000250028002B0000000000DE
:1000800023002600290004040404040404040202DA
:100090000202020203030303030301020408102007
:1000A0004080010204081020010204081020000012
:1000B0000008000201000003040700000000000027
:1000C0000000701011241FBECFEFD8E0DEBFCDBFFF
:1000D00012E0A0E0B1E0E8EAF3E202C005900D9280
:1000E000A633B107D9F724E0A6E3B2E001C01D9220
:1000F000AA31B207E1F710E0C2E6D0E004C02197D0
:10010000FE010E94C711C136D107C9F70E94000A3B
:100110000C94D2110C940000FC01538D448D252FBA
:1001200030E0842F90E0821B930B541710F0CF9691
:10013000089501970895FC01918D828D981761F0C3
:10014000828DDF01A80FB11D5D968C91928D9F5F0E
:100150009F73928F90E008958FEF9FEF0895FC01B9
:10016000918D828D981731F0828DE80FF11D858D6C
:1001700090E008958FEF9FEF0895FC01918D228DFF
:10018000892F90E0805C9F4F821B91098F73992784
:10019000089583EE92E00E94BD0021E0892B09F4CE
:1001A00020E0822F0895FC01848DDF01A80FB11D8E
:1001B000A35ABF4F2C91848D90E001968F7399279D
:1001C000848FA689B7892C93A089B1898C9180648A
:1001D0008C93938D848D981306C00288F389E02D4B
:1001E00080818F7D80830895EF92FF920F931F93FC
:1001F000CF93DF93EC0181E0888F9B8D8C8D9813DA
:1002000005C0E889F989808185FD24C0F62E0B8D13
:1002100010E00F5F1F4F0F731127E02E8C8DE81237
:100220000CC00FB607FCFACFE889F989808185FFF9
:10023000F5CFCE010E94D300F1CF8B8DFE01E80FE8
:10024000F11DE35AFF4FF0820B8FEA89FB89808111
:10025000806207C0EE89FF896083E889F98980811F
:100260008064808381E090E0DF91CF911F910F91B6
:10027000FF90EF900895CF93DF93EC01888D882352
:10028000C9F0EA89FB89808185FD05C0A889B98903
:100290008C9186FD0FC00FB607FCF5CF808185FFDE
:1002A000F2CFA889B9898C9185FFEDCFCE010E944C
:1002B000D300E7CFDF91CF91089580E090E0892BC4
:1002C00029F00E94C90081110C94000008953FB7E5
:1002D000F8948091850290918602A0918702B09156
:1002E000880226B5A89B05C02F3F19F00196A11DD5
:1002F000B11D3FBFBA2FA92F982F8827820F911DBC
:10030000A11DB11DBC01CD0142E0660F771F881F02
:10031000991F4A95D1F7089585ED8093BC0080918F
:10032000BC0084FDFCCF1092BE02089540915B0298
:10033000262F30E0240F311D21323105DCF42091CD
:10034000BE022430C9F4FC0180E090E0861758F426
:1003500030915B022191DC01A75CBD4FA30FB11D61
:100360002C930196F3CF80915B02680F60935B0240
:1003700080E0089581E0089582E00895089581E085
:1003800090E03091380220913702321710F480E06B
:1003900090E091958195910908958091380290910E
:1003A0003702891730F48F5F8093380280E090E045
:1003B00008958FEF9FEF08958091370290E020918C
:1003C0003802821B91090895CF92DF92EF92FF923B
:1003D0000F931F93CF93DF937C01262F972F8A01D2
:1003E0008091BF02882391F0C62FD72F6E01C40ED3
:1003F000D51ECC15DD0571F06991D701ED91FC9109
:100400000190F081E02DC7010995F3CF642F822F71
:100410000E949601C801DF91CF911F910F91FF902B
:10042000EF90DF90CF900895CF93DF931F92CDB7D9
:10043000DEB769832091BF022223D1F02091E2022E
:10044000203240F021E030E0FC013383228380E061
:1004500090E015C08091C002E82FF0E0EF53FD4F0F
:10046000998190838F5F8093C0028093E20205C0E0
:1004700061E0CE0101960E94960181E090E00F902C
:10048000DF91CF91089521E001C0220F6A95EAF72C
:10049000DC011C962C931C971A965C934E9319972B
:1004A000ED91FC910484F585E02D60E00994DC0178
:1004B000ED91FC910684F785E02D41E0099581E0FE
:1004C00090E0089508950895089580E090E00895DB
:1004D0000E94CD11FC0123812223B1F08181682B80
:1004E0006083828191E09093BF028093E102109239
:1004F000C0021092E20280E893E00E9414020E947F
:10050000F708282F30E002C020E030E081E090E0E2
:10051000232B11F080E090E00895EF92FF920F936B
:100520001F93CF938C01FC01759684E0C0E060FFBF
:1005300002C09081C92B6695815031968111F7CF09
:10054000413011F4F8014489F8018585C82BC42B8A
:100550007801FEE0EF0EF11CF80162896C2BC701F7
:100560000E946A02F801628960956C23C701CF91ED
:100570001F910F91FF90EF900C946A020F931F93BD
:10058000CF93DF93062F0F70423019F440E0602FB5
:1005900010C0142F262FEC0130E0B90184E07595CE
:1005A00067958A95E1F7CE010E948D02412F602F59
:1005B000CE01DF91CF911F910F910C948D02FC0120
:1005C00084858823A9F0218532852115310519F408
:1005D000611106C007C02130310521F4611102C04C
:1005E000858701C015866585CF010E960C946A0239
:1005F00008951F920F920FB60F9211242F933F93DD
:100600004F935F936F937F938F939F93AF93BF931A
:10061000EF93FF9383EE92E00E94D300FF91EF915E
:10062000BF91AF919F918F917F916F915F914F910A
:100630003F912F910F900FBE0F901F9018951F9212
:100640000F920FB60F9211242F938F939F93EF93D6
:10065000FF93E091F302F091F4028081E091F902BE
:10066000F091FA0282FD12C090818091FC028F5FAE
:100670008F732091FD02821751F0E091FC02F0E0AF
:10068000ED51FD4F958F8093FC0201C08081FF9159
:10069000EF919F918F912F910F900FBE0F901F9010
:1006A0001895833081F028F4813099F08230A1F0E0
:1006B00008958730A9F08830B9F08430D1F4809162
:1006C00080008F7D03C0809180008F7780938000B1
:1006D000089584B58F7702C084B58F7D84BD089559
:1006E0008091B0008F7703C08091B0008F7D8093A0
:1006F000B00008951F93CF93DF93282F30E0F901C6
:10070000E255FF4F8491F901E656FF4FD491F9016C
:10071000EA57FF4FC491CC23C9F0162F81110E94D4
:100720005103EC2FF0E0EE0FFF1FEE58FF4FA591A5
:10073000B4918FB7F894111105C09C91ED2FE095FD
:10074000E92302C0EC91ED2BEC938FBFDF91CF91A9
:100750001F910895CF93DF9390E0FC01E656FF4F81
:100760002491FC01EA57FF4F8491882361F190E0C6
:10077000880F991FFC01E859FF4FC591D491FC01E6
:10078000EE58FF4FA591B491611109C09FB7F8943D
:100790008881209582238883EC912E230BC06230C0
:1007A00061F49FB7F8943881822F809583238883E2
:1007B000EC912E2B2C939FBF06C08FB7F894E88145
:1007C0002E2B28838FBFDF91CF9108958E3008F0B4
:1007D0008E508770806480937C0080917A00806462
:1007E00080937A0080917A0086FDFCCF809178001A
:1007F0002091790090E0922B08958F929F92AF9272
:10080000BF92CF92DF92EF92FF926B017C010E9428
:1008100067014B015C01C114D104E104F104F1F062
:100820000E946701DC01CB0188199909AA09BB095B
:10083000883E9340A105B10570F321E0C21AD108AA
:10084000E108F10888EE880E83E0981EA11CB11C17
:10085000C114D104E104F10419F7DDCFFF90EF904A
:10086000DF90CF90BF90AF909F908F9008952FB75B
:10087000F89460918102709182028091830290913C
:1008800084022FBF08951F920F920FB60F9211246A
:100890002F933F938F939F93AF93BF938091810248
:1008A00090918202A0918302B091840230918002E3
:1008B00023E0230F2D3720F40196A11DB11D05C0A3
:1008C00026E8230F0296A11DB11D2093800280937C
:1008D000810290938202A0938302B093840280915C
:1008E000850290918602A0918702B09188020196BC
:1008F000A11DB11D8093850290938602A09387026B
:10090000B0938802BF91AF919F918F913F912F91AA
:100910000F900FBE0F901F9018951F920F920FB659
:100920000F9211242F933F934F935F936F937F9375
:100930008F939F93AF93BF93EF93FF938091B900F1
:10094000887F803609F49CC068F5883209F45BC062
:1009500090F4803109F454C038F4882309F4F6C0C7
:10096000883009F44DC0F6C0883109F44CC080329B
:1009700009F45DC0EFC0803409F468C048F48033E6
:1009800009F455C0883309F0E5C08093BC02D8C093
:10099000803509F44FC0883509F45DC0883409F00A
:1009A000D9C0D6C0883909F4C7C0A8F4883709F47B
:1009B00067C038F4883609F463C0803709F460C032
:1009C000C9C0883809F4B8C0803909F45FC08038DC
:1009D00009F0C0C05BC0803B09F486C038F4803A9F
:1009E00009F466C0883A09F47FC0B4C0803C09F4B9
:1009F000A7C0883C09F4A4C0883B09F48AC0AAC0F7
:100A00008091990210C09091BB028091BA02981710
:100A100070F5E091BB0281E08E0F8093BB02F0E0A5
:100A2000E656FD4F80818093BB0085EC86C08093A5
:100A3000BC028EC0E091BB0281E08E0F8093BB02AE
:100A40008091BB00F0E0E656FD4F80839091BB02A1
:100A50008091BA026EC0E091BB0281E08E0F80935C
:100A6000BB028091BB00F0E0E656FD4F8083809191
:100A7000BD0281116DC081E08093980284EA61C05B
:100A800083E08093BE0210927F02CFCF80917F02DD
:100A9000803208F051C0E0917F0281E08E0F809398
:100AA0007F028091BB00F0E0E15AFD4F8083BDCF13
:100AB00085EC8093BC001092BE0280917F02803250
:100AC00030F4E0917F02F0E0E15AFD4F1082609136
:100AD0007F0270E0E0915D02F0915E028FE592E0AE
:100AE000099510927F0236C084E08093BE02109276
:100AF0005C0210925B02E0915902F0915A02099552
:100B000080915B02811105C081E080935B021092AD
:100B10003902E0915C0281E08E0F80935C02F0E08C
:100B2000E75CFD4F80818093BB0090915C028091D7
:100B30005B02981708F479CF85E88093BC000AC05F
:100B400085EC8093BC001092BE0204C01092BC02DF
:100B50000E948C01FF91EF91BF91AF919F918F9176
:100B60007F916F915F914F913F912F910F900FBEA9
:100B70000F901F901895DC01ED91FC910684F7858C
:100B8000E02D40E0099461E00E94BB058BE39FE10A
:100B90000197F1F708950F931F93CF93DF93EC0123
:100BA000423018F08C8188608C834F8368872223C1
:100BB00029F0413019F48C8184608C8364E670E004
:100BC00080E090E00E94FD036C8164FD31C0E8810B
:100BD000F9810684F785E02D42E063E0CE010995B6
:100BE0008BE496E40197F1F7E881F9810684F785B3
:100BF000E02D42E063E0CE01099503E512E0C80173
:100C00000197F1F7E881F9810684F785E02D42E04C
:100C100063E0CE010995C8010197F1F7E881F981F8
:100C20000684F785E02D42E062E0CE01099517C009
:100C30006062CE010E94BB058BE496E40197F1F758
:100C40006C816062CE010E94BB0503E512E0C80121
:100C50000197F1F76C816062CE010E94BB05C8016B
:100C60000197F1F76C816062CE010E94BB058BEEAB
:100C700090E00197F1F784E08D836CE0CE010E9453
:100C8000BB05CE010E94C30582E08E8366E0CE01E3
:100C90000E94BB05E881F9810484F585E02D6FEFA2
:100CA000CE01DF91CF911F910F910994EF92FF92A6
:100CB0000F931F93CF93DF93EC01062FF42EE22EB8
:100CC0008B85888B10923802109237021092C002E6
:100CD0001092E2021092BE0211E01093BD02109237
:100CE000980261E082E10E947A0361E083E10E9460
:100CF0007A038091B9008E7F8093B9008091B9000A
:100D00008D7F8093B90088E48093B80085E4809358
:100D1000BC0088891093BF028093E1021092C00248
:100D20001092E2020E94F70891E0811190E0998B05
:100D3000992329F080E893E00E94CD018E8789896C
:100D4000882339F01F861C8260E0CE010E960E9437
:100D50006A022E2D4F2D602FCE01DF91CF911F9172
:100D60000F91FF90EF900C94CB05CF92DF92EF9212
:100D7000FF92CF93DF93EC01603282E078070CF0B2
:100D80003DC077FD06C0653B71052CF064EB70E05B
:100D900002C060E070E0898128E830E06901C81A8B
:100DA000D10887FDD394CC0CDD1CCC0CDD1C0D2CA4
:100DB000000CEE08FF088A8128E532E0281B310983
:100DC00087FD3395220F331F220F331FC901330FC5
:100DD000AA0BBB0B9C01AD012C193D094E095F0903
:100DE000DB010E94A41124EB30E040E050E00E94BF
:100DF0007A11C20ED31EE41EF51EB60188818C3016
:100E000080F5998148E850E0491B510997FD5395B9
:100E1000440F551F440F551F6417750784F09A81BE
:100E200028E532E0291B310997FD3395220F331F46
:100E3000220F331FAB01261737070CF4A9014250CC
:100E40005109440F551F2FB7F89490E0FC01EE0FA5
:100E5000FF1F8E0F9F1FFC01EC52FC4F52834183FA
:100E60002FBFDF91CF91FF90EF90DF90CF9008954B
:100E70001F93CF93DF93EC01162F88818C3008F0FD
:100E80004EC061E0812F0E94AA038881E82FF0E024
:100E90009F01220F331FE20FF31FEC52FC4F1F7311
:100EA0009081907C192B108319821A826CE00E9429
:100EB000BB119CE0899FB001112440E050E09A01F1
:100EC000260F371FF901EE0FFF1F2E0F3F1FF901ED
:100ED000EC52FC4F908196FD16C04F5F5F4F4C3037
:100EE000510569F781110FC01092800082E0809354
:100EF00081001092850010928400B19A80916F0059
:100F0000826080936F00E881F0E0CF01880F991F25
:100F1000E80FF91FEC52FC4F808180648083888148
:100F2000DF91CF911F9108951F920F920FB60F92EC
:100F300011242F933F934F935F936F937F938F93DE
:100F40009F93AF93BF93EF93FF938091360287FFF8
:100F500005C010928500109284001BC020913602BB
:100F6000022E000C330B8091F80390E0281739070C
:100F700084F480913602082E000C990BFC01EE0FD0
:100F8000FF1F8E0F9F1FFC01EC52FC4F808186FDDE
:100F900015C0809136028F5F809336022091360211
:100FA000022E000C330B8091F80390E028173907CC
:100FB000C4F4809136028C3064F113C08091360203
:100FC000082E000C990BFC01EE0FFF1F8E0F9F1FC8
:100FD000FC01EC52FC4F808160E08F730E947A0329
:100FE000D8CF8091840090918500049680349C49EC
:100FF00018F480E49CE905C08091840090918500FC
:10100000049690938900809388008FEF8093360236
:101010003BC0209184003091850080913602082EDB
:10102000000C990BFC01EE0FFF1F8E0F9F1FFC01A0
:10103000EC52FC4F81819281820F931F9093890023
:101040008093880080913602082E000C990BFC01D9
:10105000EE0FFF1F8E0F9F1FFC01EC52FC4F808193
:1010600086FF12C080913602082E000C990BFC01FD
:10107000EE0FFF1F8E0F9F1FFC01EC52FC4F808173
:1010800061E08F730E947A03FF91EF91BF91AF915E
:101090009F918F917F916F915F914F913F912F9190
:1010A0000F900FBE0F901F9018956115710579F084
:1010B000FB0101900020E9F73197AF01461B570B68
:1010C000DC01ED91FC910280F381E02D099480E038
:1010D00090E00895CF92DF92EF92FF920F931F93CB
:1010E000CF93DF936C017A018B01C0E0D0E0CE1585
:1010F000DF0589F0D8016D918D01D601ED91FC914C
:101100000190F081E02DC6010995892B11F47E0133
:1011100002C02196ECCFC701DF91CF911F910F91B3
:10112000FF90EF90DF90CF900895E3EEF2E0A0897A
:10113000B18982E08C93A485B5851C92A685B7857C
:1011400080E18C93108EA489B58986E08C93A28966
:10115000B3898C9180618C93A289B3898C918860CA
:101160008C93A289B3898C9180688C930288F389CF
:10117000E02D80818F7D80830895CF93DF93CDB75D
:10118000DEB728970FB6F894DEBF0FBECDBF1D8225
:1011900090E49E8324E12F8324E5288719829A8393
:1011A00090E19B8390E59C8390910004691710F077
:1011B0006FEF690F40910104262F30E0FE01E20F2E
:1011C000F31F403121F4943011F4918101C09581D5
:1011D000682F690F606889EF93E028960FB6F8943E
:1011E000DEBF0FBECDBFDF91CF910C94BB05209128
:1011F000E2029091E102213208F04AC08091BE02E1
:101200008111FCCF32E03093BE0231E03093BD0259
:101210003FEF3093BC021092BB022093BA02A1ECC4
:10122000B2E04AE952E0FA013E2F341B321718F4BB
:101230003D913193F9CF1092990220919902990F23
:10124000922B9093990290919802913061F41092B0
:101250009802909199029093BB009091BC0093FDED
:10126000F8CF95EC01C095EE9093BC009091BE0232
:101270009230E1F39091BC029F3F79F08091BC02E3
:10128000803241F08091BC02803331F084E005C0AF
:1012900081E003C082E001C083E01092C00210929E
:1012A000E2021092BF0208958F929F92AF92BF9276
:1012B000CF92DF92EF92FF926B017C010E94370484
:1012C0004B015C01C60ED71EE81EF91E0E943704B2
:1012D000681579058A059B0528F0C616D706E80625
:1012E000F906A0F7FF90EF90DF90CF90BF90AF90FE
:1012F0009F908F9008954F925F926F927F92EF929E
:10130000FF920F931F93CF93DF93CDB7DEB7A197D3
:101310000FB6F894DEBF0FBECDBF7C01FA01CB0142
:1013200019A2223008F42AE08E010F5D1F4F422ED1
:10133000512C612C712CBF01A30192010E94581104
:10134000F901CA01015011096A3014F4605D01C04D
:10135000695CD8016C93232B242B252B61F7B801F2
:10136000C7010E945508A1960FB6F894DEBF0FBEC4
:10137000CDBFDF91CF911F910F91FF90EF907F90A4
:101380006F905F904F900895CF92DF92EF92FF920F
:101390000F931F93CF93DF936B01770FEE08FF0836
:1013A000F7FE1FC0EC01E881F9810190F081E02D8A
:1013B0006DE209958C0144275527BA014C195D0946
:1013C0006E097F092AE0CE010E947B09800F911FE0
:1013D000DF91CF911F910F91FF90EF90DF90CF9011
:1013E00008952AE0B701A601DF91CF911F910F91D7
:1013F000FF90EF90DF90CF900C947B090C945508F0
:10140000789484B5826084BD84B5816084BD85B5DF
:10141000826085BD85B5816085BD80916E008160EB
:1014200080936E0010928100809181008260809391
:101430008100809181008160809381008091800093
:101440008160809380008091B10084608093B100BE
:101450008091B00081608093B00080917A008460B8
:1014600080937A0080917A00826080937A008091E4
:101470007A00816080937A0080917A0080688093FE
:101480007A001092C1001092D0031092D1031092F2
:10149000D2031092D30310928E0310928F031092F6
:1014A00090031092910368EB7BE080E090E00E9453
:1014B000540983EE92E09093CF038093CE030E9471
:1014C00095080E94370460938E0370938F03809376
:1014D00090039093910365E471E08091CE03909125
:1014E000CF030E94FE096AE070E080E090E00E9475
:1014F000540981E08093A2030E94950860E08EE089
:101500000E94AA0360E081E10E94AA0363E070E008
:1015100087E194E00E94380785E090E090931604FC
:10152000809315046091150470911604693B710550
:1015300084F087E194E00E94B5066FE070E080E0FF
:1015400090E00E94FD038091150490911604059788
:10155000E5CF65E070E082E194E00E94380785E025
:1015600090E09093050180930401C0910401D09113
:101570000501CA3BD1058CF4BE0182E194E00E94D2
:10158000B5066FE070E080E090E00E94FD032596D4
:10159000D0930501C0930401E8CF62E082E00E948D
:1015A000AA0360E08FE00E94AA0360E080E10E944D
:1015B000AA0361E084E00E94AA0361E087E00E9440
:1015C000AA0361E088E00E94AA0361E088E00E942B
:1015D0007A0361E087E00E947A0361E084E00E9480
:1015E0007A0361E089E00E94AA0361E08CE00E9436
:1015F000AA0361E089E00E947A0361E08CE00E9426
:101600007A0320E042E060E189EF93E00E94560611
:1016100060E080E00E94BD08C4E0D0E067E571E0D2
:1016200089EF93E00E94550867E771E080E090E061
:101630000E94FD0389EF93E00E94C30560E671E01C
:1016400089EF93E00E94550867E771E080E090E041
:101650000E94FD0389EF93E00E94C3056AE671E0F2
:1016600089EF93E00E94550867E771E080E090E021
:101670000E94FD0389EF93E00E94C305219771F654
:1016800060E084E00E94BD0865E771E089EF93E0C7
:101690000E94550860ED77E080E090E00E94FD0335
:1016A00089EF93E00E94C305C1E0D0E099EB292EB9
:1016B000312C24EF822E99249394A12CB12C32E367
:1016C000432E512C612C712C8FE00E94E6038C017B
:1016D000909397028093960280E10E94E6037C013A
:1016E0009093950280939402E0EBF0E08491ECE912
:1016F000F0E0D490E8E8F0E0C490CC20A9F08111AB
:101700000E945103EC2DF0E0EE0FFF1FE458FF4F55
:10171000A591B4918C91982F9D2131E020E009F49E
:1017200030E0832F922F02C080E090E0F1E08F271D
:10173000282F2170209393022091910230919202E0
:101740002115310509F086C32CEBE21622E0F206E2
:1017500024F0D0939202C0939102053611052CF427
:10176000D0930C01C0930B0110C00C3B12402CF025
:1017700010920C0110920B0108C0892B31F042E04D
:1017800050E050930C0140930B018EE00E94E60361
:101790008C5291409093900280938F0218161906F4
:1017A0001CF010928E0203C081E080938E0281E1D2
:1017B0000E94E6038C52914090938D0280938C029C
:1017C000181619061CF010928B0203C081E080935A
:1017D0008B0200910B0110910C0161E002301105A8
:1017E00031F488E00E947A0360E087E005C087E07A
:1017F0000E947A0360E088E00E947A038091890267
:1018000090918A02009731F460E089E00E947A03A7
:1018100061E007C0019741F461E089E00E947A032A
:1018200060E08CE00E947A030230110509F0C1C02B
:1018300080918E02882309F459C080910A01811198
:1018400055C089EF93E00E94C30560E080E00E94EC
:10185000BD086EE771E089EF93E00E9455080091A2
:101860000801109109010130110579F461E080E06F
:101870000E94BD086BE871E089EF93E00E94550873
:10188000109307010093060110C0012B71F461E071
:1018900080E00E94BD0867E971E089EF93E00E9453
:1018A0005508109207011092060185E090E0909390
:1018B00016048093150460911504709116046A3B18
:1018C000710584F487E194E00E94B5066FE070E052
:1018D00080E090E00E94FD03809115049091160431
:1018E0000596E5CF81E080930A015EC080918B026E
:1018F000811119C180910A01882309F414C189EF6B
:1019000093E00E94C30560E080E00E94BD0863EAA6
:1019100071E089EF93E00E94550800910801109151
:1019200009010130110579F461E080E00E94BD08F1
:101930006BE871E089EF93E00E945508109307016E
:101940000093060110C0012B71F461E080E00E9459
:10195000BD0867E971E089EF93E00E945508109295
:10196000070110920601309216042092150460912E
:1019700015047091160465307105A4F087E194E0B8
:101980000E94B5066FE070E080E090E00E94FD03E9
:1019900080911504909116040597909316048093F6
:1019A0001504E5CF10920A0189EF93E00E94C30568
:1019B000BAC00130110509F05AC080910A018111A5
:1019C000B2C089EF93E00E94C30560E080E00E940E
:1019D000BD0860EB71E089EF93E00E9455088091AB
:1019E0000801909109018130910579F461E080E06E
:1019F0000E94BD086BE871E089EF93E00E945508F2
:101A0000109307010093060110C0892B71F461E067
:101A100080E00E94BD0867E971E089EF93E00E94D1
:101A200055081092070110920601E5E0F0E0F093EE
:101A30001604E093150460911504709116046A3B36
:101A400071050CF04FCF87E194E00E94B5066FE07E
:101A500070E080E090E00E94FD0380911504909179
:101A6000160405969093160480931504E4CF012B79
:101A700009F059C080910A01882309F454C089EF04
:101A800093E00E94C30560E080E00E94BD0860EC26
:101A900071E089EF93E00E945508009108011091D0
:101AA00009010130110579F461E080E00E94BD0870
:101AB0006BE871E089EF93E00E94550810930701ED
:101AC0000093060110C0012B71F461E080E00E94D8
:101AD000BD0867E971E089EF93E00E945508109214
:101AE00007011092060130921604209215046091AD
:101AF000150470911604653071050CF453CF87E11D
:101B000094E00E94B5066FE070E080E090E00E94F3
:101B1000FD03809115049091160405979093160487
:101B200080931504E4CF83EE92E00E949B0084979B
:101B3000C1F461E070E080E090E00E94FD0383EE7C
:101B400092E00E949B008133910529F410928A0251
:101B50001092890206C0C09721F4D0938A02C093E4
:101B600089028091890290918A02009709F063C0EE
:101B70008091080190910901892B09F0BBC089EF80
:101B800093E00E94C30560E080E00E94BD082091C0
:101B90000A0180910B0190910C01222331F08230D7
:101BA000910549F460ED71E010C08230910519F49F
:101BB0006CED71E00AC08130910519F468EE71E0B6
:101BC00004C0892B31F468EF71E089EF93E00E9443
:101BD000550861E080E00E94BD0868E072E089EF8E
:101BE00093E00E94550825E030E0309305012093F2
:101BF000040100910401109105010A3B110594F4C0
:101C0000B80182E194E00E94B5066FE070E080E0E8
:101C100090E00E94FD030B5F1F4F1093050100939E
:101C20000401E7CF89EF93E00E94C305D093090137
:101C3000C09308015FC0019709F05CC08091080162
:101C400090910901019709F055C089EF93E00E9436
:101C5000C30560E080E00E94BD0820910A018091E8
:101C60000B0190910C01222331F08230910549F44F
:101C700060ED71E010C08230910519F46CED71E0F7
:101C80000AC08130910519F468EE71E004C0892B17
:101C900031F468EF71E089EF93E00E94550861E04C
:101CA00080E00E94BD0865E172E089EF93E00E9448
:101CB0005508309205012092040100910401109111
:101CC00005010530110594F0B80182E194E00E940D
:101CD000B5066FE070E080E090E00E94FD030550E3
:101CE00011091093050100930401E7CF1092090137
:101CF0001092080120910A01809102019091030144
:101D0000222321F08D7F892BA1F103C00197029737
:101D100080F180910B0190910C018230910538F493
:101D20008091000190910101019749F422C002972E
:101D300031F48091000190910101892BD1F08091C3
:101D40000801909109018130910541F480910601CB
:101D5000909107018D7F892B61F0A0C0892B09F03C
:101D60009DC080910601909107010197029708F0AC
:101D700095C089EF93E00E94C30560E080E00E9477
:101D8000BD0880910A0100910B0110910C01811195
:101D90001BC00230110559F46CED71E089EF93E03E
:101DA0000E94550810920301109202011AC0012BE3
:101DB00071F568EF71E089EF93E00E945508109289
:101DC0000301109202011FC00230110579F460ED89
:101DD00071E089EF93E00E945508D0930301C0930E
:101DE0000201D0930101C093000111C0013011051F
:101DF00071F468EE71E089EF93E00E94550810934A
:101E0000030100930201109201011092000161E0B0
:101E100080E00E94BD080091080110910901013085
:101E2000110559F46BE871E089EF93E00E945508C1
:101E3000109307010093060131C0012B79F567E982
:101E400071E089EF93E00E9455081092070110920B
:101E5000060124C02130310509F589EF93E00E9485
:101E6000C30542E050E0509303014093020161E05A
:101E700088E00E947A0361E087E00E947A0361E0D3
:101E800084E00E947A0380919402909195028536B5
:101E9000910524F4109292021092910280929A037A
:101EA00090929B03A0929C03B0929D0310929E037C
:101EB00010929F031092A0031092A10380919203AD
:101EC00090919303A0919403B0919503809396030E
:101ED00090939703A0939803B09399030E943704BB
:101EE000609392037093930380939403909395036C
:101EF0000E94370400918E0310918F03209190036C
:101F000030919103DC01CB01801B910BA20BB30B31
:101F100082339105A105B10550F4A3019201281B5C
:101F2000390B4A0B5B0BCA01B9010E9454090E948C
:101F3000370460938E0370938F0380939003909384
:101F400091030E9437046B017C0162E272E0809190
:101F5000CE039091CF030E94FE092AE041E050E0B9
:101F600060E070E08091CE039091CF030E947B09E6
:101F700069E272E08091CE039091CF030E94FE0946
:101F80002AE0B701A6018091CE039091CF030E9471
:101F90007B096BE272E08091CE039091CF030E94A7
:101FA000FE098091920390919303A0919403B091C4
:101FB0009503B701A601481B590B6A0B7B0B2AE05E
:101FC0008091CE039091CF030E947B096BE272E077
:101FD0008091CE039091CF030E94FE09409192031D
:101FE00050919303609194037091950380919603AF
:101FF00090919703A0919803B0919903481B590BB6
:102000006A0B7B0B2AE08091CE039091CF030E9454
:102010007B096DE272E08091CE039091CF030E9424
:10202000FE0960918B0270E08091CE039091CF0306
:102030000E94C4096DE272E08091CE039091CF03BB
:102040000E94FE0960918F02709190028091CE03F0
:102050009091CF030E94C4096DE272E08091CE039B
:102060009091CF030E94FE0960918E0270E08091F2
:10207000CE039091CF030E94C4096DE272E080917B
:10208000CE039091CF030E94FE0960918C02709163
:102090008D028091CE039091CF030E94C4090091DC
:1020A000CE031091CF036FE272E0C8010E94550881
:1020B00064E571E0C8010E94550865E070E080E0C9
:1020C00090E00E9454090E94370460939203709339
:1020D000930380939403909395030E945D01F4CA47
:1020E0001092E6021092E50288EE93E0A0E0B0E0E4
:1020F0008093E7029093E802A093E902B093EA028A
:1021000021E131E03093E4022093E30225EC30E05A
:102110003093F0022093EF0224EC30E03093F2028F
:102120002093F10220EC30E03093F4022093F3028C
:1021300021EC30E03093F6022093F50222EC30E0FF
:102140003093F8022093F70226EC30E03093FA0245
:102150002093F9021092FC021092FD021092FE02EE
:102160001092FF02109283031092820380938403E3
:1021700090938503A0938603B093870383E291E055
:1021800090938103809380031092920310929303A3
:102190001092940310929503109296031092970355
:1021A000109298031092990310929A0310929B0335
:1021B00010929C0310929D0310929E0310929F0315
:1021C0001092A0031092A1038091F8038C30A0F428
:1021D00091E0980F9093F8038093170490E0FC012E
:1021E000EE0FFF1F8E0F9F1FFC01EC52FC4F88EB80
:1021F0009BE09283818303C08FEF8093170410923A
:102200001604109215048091F8038C30A0F491E02C
:10221000980F9093F8038093120490E0FC01EE0F66
:10222000FF1F8E0F9F1FFC01EC52FC4F88EB9BE0C1
:102230009283818303C08FEF809312041092FC037A
:102240001092FB0385E391E09093FA038093F903E6
:10225000109209048FEF80930804109207041092E3
:102260000A048FE38093040410920504109206047C
:10227000109203041092020484E080930B0482E025
:1022800080930C0481E080930D0480E180930E0420
:1022900080E280930F0480E48093100480E88093B0
:1022A000110440E050E063E089EF93E00C944302B6
:1022B000A1E21A2EAA1BBB1BFD010DC0AA1FBB1F4A
:1022C000EE1FFF1FA217B307E407F50720F0A21BBC
:1022D000B30BE40BF50B661F771F881F991F1A9429
:1022E00069F760957095809590959B01AC01BD0153
:1022F000CF010895052E97FB1EF400940E949111C2
:1023000057FD07D00E94581107FC03D04EF40C94DF
:10231000911150954095309521953F4F4F4F5F4F0C
:10232000089590958095709561957F4F8F4F9F4F41
:1023300008950E94AC11A59F900DB49F900DA49F8D
:10234000800D911D11240895B7FF0C9499110E94DE
:102350009911821B930B0895A29FB001B39FC001F6
:10236000A39F700D811D1124911DB29F700D811DC1
:102370001124911D0895991B79E004C0991F9617A7
:1023800008F0961B881F7A95C9F780950895EE0F7F
:10239000FF1F0590F491E02D099481E090E0F894FE
:0823A0000C94D211F894FFCF58
:1023A8000100020005000200010001020000000017
:1023B80000F4006A088C003B01BD009B00AF0000E0
:1023C8000000001402E4016502BE01DC01CD01BF7A
:1023D800010000000057026A0865026402560643BD
:1023E80002DF02BE02564D4450565F317C315F56C3
:1023F8004D4450560D0A004C6F6164696E672E009B
:102408004C6F6164696E672E2E004C6F6164696E53
:10241800672E2E2E0057656C636F6D6521004D3158
:10242800203A20436C6F73696E67004D32203A2062
:10243800436C6F736564004D32203A204F70656EAF
:102448006564004D31203A204F70656E696E6700F3
:102458004D31203A20436C6F73696E672846290016
:102468004D31203A204F70656E696E672846290005
:102478004D31203A20436C6F736564004D31203A2A
:10248800204F70656E6564004D31203A20436C6FB3
:1024980073656420284629004D31203A204F706525
:1024A8006E656420284629004D32203A20436C6F1F
:1024B80073696E67004D32203A204F70656E696E01
:1024C8006700564D4450455F003A323A007C005F41
:0624D800564D4450450082
:107E0000112484B714BE81FFF0D085E080938100F7
:107E100082E08093C00088E18093C10086E0809377
:107E2000C20080E18093C4008EE0C9D0259A86E02C
:107E300020E33CEF91E0309385002093840096BBD3
:107E4000B09BFECF1D9AA8958150A9F7CC24DD24C4
:107E500088248394B5E0AB2EA1E19A2EF3E0BF2EE7
:107E6000A2D0813461F49FD0082FAFD0023811F036
:107E7000013811F484E001C083E08DD089C08234E0
:107E800011F484E103C0853419F485E0A6D080C0E4
:107E9000853579F488D0E82EFF2485D0082F10E0AE
:107EA000102F00270E291F29000F111F8ED06801E7
:107EB0006FC0863521F484E090D080E0DECF843638
:107EC00009F040C070D06FD0082F6DD080E0C81688
:107ED00080E7D80618F4F601B7BEE895C0E0D1E017
:107EE00062D089930C17E1F7F0E0CF16F0E7DF06D8
:107EF00018F0F601B7BEE89568D007B600FCFDCFD4
:107F0000A601A0E0B1E02C9130E011968C91119780
:107F100090E0982F8827822B932B1296FA010C0160
:107F200087BEE89511244E5F5F4FF1E0A038BF0790
:107F300051F7F601A7BEE89507B600FCFDCF97BE46
:107F4000E89526C08437B1F42ED02DD0F82E2BD052
:107F50003CD0F601EF2C8F010F5F1F4F84911BD097
:107F6000EA94F801C1F70894C11CD11CFA94CF0C13
:107F7000D11C0EC0853739F428D08EE10CD085E9AC
:107F80000AD08FE07ACF813511F488E018D01DD067
:107F900080E101D065CF982F8091C00085FFFCCF94
:107FA0009093C60008958091C00087FFFCCF809118
:107FB000C00084FD01C0A8958091C6000895E0E648
:107FC000F0E098E1908380830895EDDF803219F02E
:107FD00088E0F5DFFFCF84E1DECF1F93182FE3DFCA
:107FE0001150E9F7F2DF1F91089580E0E8DFEE27F6
:047FF000FF270994CA
:027FFE00040479
:0400000300007E007B
:00000001FF