:100000000C9462000C948A000C948A000C948A0070
:100010000C948A000C948A000C948A000C948A0038
:100020000C948A000C948A000C948A000C94940717
:100030000C948A000C948A000C948A000C948A0018
:100040000C9443040C948A000C941F030C94F90242
:100050000C948A000C948A000C948A000C948A00F8
:100060000C948D040C948A000000000024002700EA
:100070002A0000000000250028002B0000000000DE
:1000800023002600290004040404040404040202DA
:100090000202020203030303030301020408102007
:1000A0004080010204081020010204081020000012
:1000B0000008000201000003040700000000000027
:1000C00000005B1011241FBECFEFD8E0DEBFCDBF14
:1000D00012E0A0E0B1E0EEE7F3E202C005900D927D
:1000E000A833B107D9F724E0A8E3B2E001C01D921C
:1000F000AE31B207E1F710E0C2E6D0E004C02197CC
:10010000FE010E94B211C136D107C9F70E94C4098D
:100110000C94BD110C940000FC01538D448D252FCF
:1001200030E0842F90E0821B930B541710F0CF9691
:10013000089501970895FC01918D828D981761F0C3
:10014000828DDF01A80FB11D5D968C91928D9F5F0E
:100150009F73928F90E008958FEF9FEF0895FC01B9
:10016000918D828D981731F0828DE80FF11D858D6C
:1001700090E008958FEF9FEF0895FC01918D228DFF
:10018000892F90E0805C9F4F821B91098F73992784
:10019000089587EE92E00E94BD0021E0892B09F4CA
:1001A00020E0822F0895FC01848DDF01A80FB11D8E
:1001B000A35ABF4F2C91848D90E001968F7399279D
:1001C000848FA689B7892C93A089B1898C9180648A
:1001D0008C93938D848D981306C00288F389E02D4B
:1001E00080818F7D80830895EF92FF920F931F93FC
:1001F000CF93DF93EC0181E0888F9B8D8C8D9813DA
:1002000005C0E889F989808185FD24C0F62E0B8D13
:1002100010E00F5F1F4F0F731127E02E8C8DE81237
:100220000CC00FB607FCFACFE889F989808185FFF9
:10023000F5CFCE010E94D300F1CF8B8DFE01E80FE8
:10024000F11DE35AFF4FF0820B8FEA89FB89808111
:10025000806207C0EE89FF896083E889F98980811F
:100260008064808381E090E0DF91CF911F910F91B6
:10027000FF90EF900895CF93DF93EC01888D882352
:10028000C9F0EA89FB89808185FD05C0A889B98903
:100290008C9186FD0FC00FB607FCF5CF808185FFDE
:1002A000F2CFA889B9898C9185FFEDCFCE010E944C
:1002B000D300E7CFDF91CF91089580E090E0892BC4
:1002C00029F00E94C90081110C94000008953FB7E5
:1002D000F8948091870290918802A0918902B09150
:1002E0008A0226B5A89B05C02F3F19F00196A11DD3
:1002F000B11D3FBFBA2FA92F982F8827820F911DBC
:10030000A11DB11DBC01CD0142E0660F771F881F02
:10031000991F4A95D1F7089585ED8093BC0080918F
:10032000BC0084FDFCCF1092C202089540915D0292
:10033000262F30E0240F311D21323105DCF42091CD
:10034000C2022430C9F4FC0180E090E0861758F422
:1003500030915D022191DC01A55CBD4FA30FB11D61
:100360002C930196F3CF80915D02680F60935D023C
:1003700080E0089581E0089582E00895089581E085
:1003800090E030913A0220913902321710F480E067
:1003900090E0919581959109089580913A0290910C
:1003A0003902891730F48F5F80933A0280E090E041
:1003B00008958FEF9FEF08958091390290E020918A
:1003C0003A02821B91090895CF92DF92EF92FF9239
:1003D0000F931F93CF93DF937C01262F972F8A01D2
:1003E0008091C302882391F0C62FD72F6E01C40ECF
:1003F000D51ECC15DD0571F06991D701ED91FC9109
:100400000190F081E02DC7010995F3CF642F822F71
:100410000E949601C801DF91CF911F910F91FF902B
:10042000EF90DF90CF900895CF93DF931F92CDB7D9
:10043000DEB769832091C3022223D1F02091E60226
:10044000203240F021E030E0FC013383228380E061
:1004500090E015C08091C402E82FF0E0EB53FD4F0F
:10046000998190838F5F8093C4028093E60205C0D8
:1004700061E0CE0101960E94960181E090E00F902C
:10048000DF91CF91089521E001C0220F6A95EAF72C
:10049000DC011C962C931C971A965C934E9319972B
:1004A000ED91FC910484F585E02D60E00994DC0178
:1004B000ED91FC910684F785E02D41E0099581E0FE
:1004C00090E0089508950895089580E090E00895DB
:1004D0000E94B811FC0123812223B1F08181682B95
:1004E0006083828191E09093C3028093E502109231
:1004F000C4021092E60284E893E00E9414020E9473
:10050000F708282F30E002C020E030E081E090E0E2
:10051000232B11F080E090E00895EF92FF920F936B
:100520001F93CF938C01FC01759684E0C0E060FFBF
:1005300002C09081C92B6695815031968111F7CF09
:10054000413011F4F8014489F8018585C82BC42B8A
:100550007801FEE0EF0EF11CF80162896C2BC701F7
:100560000E946A02F801628960956C23C701CF91ED
:100570001F910F91FF90EF900C946A020F931F93BD
:10058000CF93DF93062F0F70423019F440E0602FB5
:1005900010C0142F262FEC0130E0B90184E07595CE
:1005A00067958A95E1F7CE010E948D02412F602F59
:1005B000CE01DF91CF911F910F910C948D02FC0120
:1005C00084858823A9F0218532852115310519F408
:1005D000611106C007C02130310521F4611102C04C
:1005E000858701C015866585CF010E960C946A0239
:1005F00008951F920F920FB60F9211242F933F93DD
:100600004F935F936F937F938F939F93AF93BF931A
:10061000EF93FF9387EE92E00E94D300FF91EF915A
:10062000BF91AF919F918F917F916F915F914F910A
:100630003F912F910F900FBE0F901F9018951F9212
:100640000F920FB60F9211242F938F939F93EF93D6
:10065000FF93E091F702F091F8028081E091FD02B2
:10066000F091FE0282FD12C09081809100038F5FA5
:100670008F7320910103821751F0E0910003F0E0A5
:10068000E951FD4F958F8093000301C08081FF9158
:10069000EF919F918F912F910F900FBE0F901F9010
:1006A0001895833081F028F4813099F08230A1F0E0
:1006B00008958730A9F08830B9F08430D1F4809162
:1006C00080008F7D03C0809180008F7780938000B1
:1006D000089584B58F7702C084B58F7D84BD089559
:1006E0008091B0008F7703C08091B0008F7D8093A0
:1006F000B00008951F93CF93DF93282F30E0F901C6
:10070000E255FF4F8491F901E656FF4FD491F9016C
:10071000EA57FF4FC491CC23C9F0162F81110E94D4
:100720005103EC2FF0E0EE0FFF1FEE58FF4FA591A5
:10073000B4918FB7F894111105C09C91ED2FE095FD
:10074000E92302C0EC91ED2BEC938FBFDF91CF91A9
:100750001F910895CF93DF9390E0FC01E656FF4F81
:100760002491FC01EA57FF4F8491882361F190E0C6
:10077000880F991FFC01E859FF4FC591D491FC01E6
:10078000EE58FF4FA591B491611109C09FB7F8943D
:100790008881209582238883EC912E230BC06230C0
:1007A00061F49FB7F8943881822F809583238883E2
:1007B000EC912E2B2C939FBF06C08FB7F894E88145
:1007C0002E2B28838FBFDF91CF9108958E3008F0B4
:1007D0008E508770806480937C0080917A00806462
:1007E00080937A0080917A0086FDFCCF809178001A
:1007F0002091790090E0922B08958F929F92AF9272
:10080000BF92CF92DF92EF92FF926B017C010E9428
:1008100067014B015C01C114D104E104F104F1F062
:100820000E946701DC01CB0188199909AA09BB095B
:10083000883E9340A105B10570F321E0C21AD108AA
:10084000E108F10888EE880E83E0981EA11CB11C17
:10085000C114D104E104F10419F7DDCFFF90EF904A
:10086000DF90CF90BF90AF909F908F9008952FB75B
:10087000F894609183027091840280918502909136
:1008800086022FBF08951F920F920FB60F92112468
:100890002F933F938F939F93AF93BF938091830246
:1008A00090918402A0918502B091860230918202DB
:1008B00023E0230F2D3720F40196A11DB11D05C0A3
:1008C00026E8230F0296A11DB11D2093820280937A
:1008D000830290938402A0938502B0938602809154
:1008E000870290918802A0918902B0918A020196B4
:1008F000A11DB11D8093870290938802A093890265
:10090000B0938A02BF91AF919F918F913F912F91A8
:100910000F900FBE0F901F9018951F920F920FB659
:100920000F9211242F933F934F935F936F937F9375
:100930008F939F93AF93BF93EF93FF938091B900F1
:10094000887F803609F49CC068F5883209F45BC062
:1009500090F4803109F454C038F4882309F4F6C0C7
:10096000883009F44DC0F6C0883109F44CC080329B
:1009700009F45DC0EFC0803409F468C048F48033E6
:1009800009F455C0883309F0E5C08093C002D8C08F
:10099000803509F44FC0883509F45DC0883409F00A
:1009A000D9C0D6C0883909F4C7C0A8F4883709F47B
:1009B00067C038F4883609F463C0803709F460C032
:1009C000C9C0883809F4B8C0803909F45FC08038DC
:1009D00009F0C0C05BC0803B09F486C038F4803A9F
:1009E00009F466C0883A09F47FC0B4C0803C09F4B9
:1009F000A7C0883C09F4A4C0883B09F48AC0AAC0F7
:100A000080919D0210C09091BF028091BE02981704
:100A100070F5E091BF0281E08E0F8093BF02F0E09D
:100A2000E256FD4F80818093BB0085EC86C08093A9
:100A3000C0028EC0E091BF0281E08E0F8093BF02A2
:100A40008091BB00F0E0E256FD4F80839091BF02A1
:100A50008091BE026EC0E091BF0281E08E0F809354
:100A6000BF028091BB00F0E0E256FD4F8083809191
:100A7000C10281116DC081E080939C0284EA61C053
:100A800083E08093C20210928102CFCF80918102D5
:100A9000803208F051C0E091810281E08E0F809396
:100AA00081028091BB00F0E0EF59FD4F8083BDCF04
:100AB00085EC8093BC001092C2028091810280324A
:100AC00030F4E0918102F0E0EF59FD4F1082609127
:100AD000810270E0E0915F02F091600281E692E0B5
:100AE00009951092810236C084E08093C202109270
:100AF0005E0210925D02E0915B02F0915C0209954A
:100B000080915D02811105C081E080935D021092A9
:100B10003B02E0915E0281E08E0F80935E02F0E086
:100B2000E55CFD4F80818093BB0090915E028091D7
:100B30005D02981708F479CF85E88093BC000AC05D
:100B400085EC8093BC001092C20204C01092C002D7
:100B50000E948C01FF91EF91BF91AF919F918F9176
:100B60007F916F915F914F913F912F910F900FBEA9
:100B70000F901F901895DC01ED91FC910684F7858C
:100B8000E02D40E0099461E00E94BB058BE39FE10A
:100B90000197F1F708950F931F93CF93DF93EC0123
:100BA000423018F08C8188608C834F8368872223C1
:100BB00029F0413019F48C8184608C8364E670E004
:100BC00080E090E00E94FD036C8164FD31C0E8810B
:100BD000F9810684F785E02D42E063E0CE010995B6
:100BE0008BE496E40197F1F7E881F9810684F785B3
:100BF000E02D42E063E0CE01099503E512E0C80173
:100C00000197F1F7E881F9810684F785E02D42E04C
:100C100063E0CE010995C8010197F1F7E881F981F8
:100C20000684F785E02D42E062E0CE01099517C009
:100C30006062CE010E94BB058BE496E40197F1F758
:100C40006C816062CE010E94BB0503E512E0C80121
:100C50000197F1F76C816062CE010E94BB05C8016B
:100C60000197F1F76C816062CE010E94BB058BEEAB
:100C700090E00197F1F784E08D836CE0CE010E9453
:100C8000BB05CE010E94C30582E08E8366E0CE01E3
:100C90000E94BB05E881F9810484F585E02D6FEFA2
:100CA000CE01DF91CF911F910F910994EF92FF92A6
:100CB0000F931F93CF93DF93EC01062FF42EE22EB8
:100CC0008B85888B10923A02109239021092C402DE
:100CD0001092E6021092C20211E01093C10210922B
:100CE0009C0261E082E10E947A0361E083E10E945C
:100CF0007A038091B9008E7F8093B9008091B9000A
:100D00008D7F8093B90088E48093B80085E4809358
:100D1000BC0088891093C3028093E5021092C4023C
:100D20001092E6020E94F70891E0811190E0998B01
:100D3000992329F084E893E00E94CD018E87898968
:100D4000882339F01F861C8260E0CE010E960E9437
:100D50006A022E2D4F2D602FCE01DF91CF911F9172
:100D60000F91FF90EF900C94CB05CF92DF92EF9212
:100D7000FF92CF93DF93EC01603282E078070CF0B2
:100D80003DC077FD06C0653B71052CF064EB70E05B
:100D900002C060E070E0898128E830E06901C81A8B
:100DA000D10887FDD394CC0CDD1CCC0CDD1C0D2CA4
:100DB000000CEE08FF088A8128E532E0281B310983
:100DC00087FD3395220F331F220F331FC901330FC5
:100DD000AA0BBB0B9C01AD012C193D094E095F0903
:100DE000DB010E948F1124EB30E040E050E00E94D4
:100DF0006511C20ED31EE41EF51EB60188818C302B
:100E000080F5998148E850E0491B510997FD5395B9
:100E1000440F551F440F551F6417750784F09A81BE
:100E200028E532E0291B310997FD3395220F331F46
:100E3000220F331FAB01261737070CF4A9014250CC
:100E40005109440F551F2FB7F89490E0FC01EE0FA5
:100E5000FF1F8E0F9F1FFC01E852FC4F52834183FE
:100E60002FBFDF91CF91FF90EF90DF90CF9008954B
:100E70001F93CF93DF93EC01162F88818C3008F0FD
:100E80004EC061E0812F0E94AA038881E82FF0E024
:100E90009F01220F331FE20FF31FE852FC4F1F7315
:100EA0009081907C192B108319821A826CE00E9429
:100EB000A6119CE0899FB001112440E050E09A0106
:100EC000260F371FF901EE0FFF1F2E0F3F1FF901ED
:100ED000E852FC4F908196FD16C04F5F5F4F4C303B
:100EE000510569F781110FC01092800082E0809354
:100EF00081001092850010928400B19A80916F0059
:100F0000826080936F00E881F0E0CF01880F991F25
:100F1000E80FF91FE852FC4F80818064808388814C
:100F2000DF91CF911F9108951F920F920FB60F92EC
:100F300011242F933F934F935F936F937F938F93DE
:100F40009F93AF93BF93EF93FF938091380287FFF6
:100F500005C010928500109284001BC020913802B9
:100F6000022E000C330B8091FC0390E02817390708
:100F700084F480913802082E000C990BFC01EE0FCE
:100F8000FF1F8E0F9F1FFC01E852FC4F808186FDE2
:100F900015C0809138028F5F80933802209138020B
:100FA000022E000C330B8091FC0390E028173907C8
:100FB000C4F4809138028C3064F113C080913802FF
:100FC000082E000C990BFC01EE0FFF1F8E0F9F1FC8
:100FD000FC01E852FC4F808160E08F730E947A032D
:100FE000D8CF8091840090918500049680349C49EC
:100FF00018F480E49CE905C08091840090918500FC
:10100000049690938900809388008FEF8093380234
:101010003BC0209184003091850080913802082ED9
:10102000000C990BFC01EE0FFF1F8E0F9F1FFC01A0
:10103000E852FC4F81819281820F931F9093890027
:101040008093880080913802082E000C990BFC01D7
:10105000EE0FFF1F8E0F9F1FFC01E852FC4F808197
:1010600086FF12C080913802082E000C990BFC01FB
:10107000EE0FFF1F8E0F9F1FFC01E852FC4F808177
:1010800061E08F730E947A03FF91EF91BF91AF915E
:101090009F918F917F916F915F914F913F912F9190
:1010A0000F900FBE0F901F9018956115710579F084
:1010B000FB0101900020E9F73197AF01461B570B68
:1010C000DC01ED91FC910280F381E02D099480E038
:1010D00090E00895CF92DF92EF92FF920F931F93CB
:1010E000CF93DF936C017A018B01C0E0D0E0CE1585
:1010F000DF0589F0D8016D918D01D601ED91FC914C
:101100000190F081E02DC6010995892B11F47E0133
:1011100002C02196ECCFC701DF91CF911F910F91B3
:10112000FF90EF90DF90CF900895E7EEF2E0A08976
:10113000B18982E08C93A485B5851C92A685B7857C
:1011400080E18C93108EA489B58986E08C93A28966
:10115000B3898C9180618C93A289B3898C918860CA
:101160008C93A289B3898C9180688C930288F389CF
:10117000E02D80818F7D80830895CF93DF93CDB75D
:10118000DEB728970FB6F894DEBF0FBECDBF1D8225
:1011900090E49E8324E12F8324E5288719829A8393
:1011A00090E19B8390E59C8390910404691710F073
:1011B0006FEF690F40910504262F30E0FE01E20F2A
:1011C000F31F403121F4943011F4918101C09581D5
:1011D000682F690F60688DEF93E028960FB6F8943A
:1011E000DEBF0FBECDBFDF91CF910C94BB05209128
:1011F000E6029091E502213208F04AC08091C202D5
:101200008111FCCF32E03093C20231E03093C10251
:101210003FEF3093C0021092BF022093BE02A5ECB4
:10122000B2E04EE952E0FA013E2F341B321718F4B7
:101230003D913193F9CF10929D0220919D02990F1B
:10124000922B90939D0290919C02913061F41092A8
:101250009C0290919D029093BB009091BC0093FDE5
:10126000F8CF95EC01C095EE9093BC009091C2022E
:101270009230E1F39091C0029F3F79F08091C002DB
:10128000803241F08091C002803331F084E005C0AB
:1012900081E003C082E001C083E01092C40210929A
:1012A000E6021092C30208958F929F92AF92BF926E
:1012B000CF92DF92EF92FF926B017C010E94370484
:1012C0004B015C01C60ED71EE81EF91E0E943704B2
:1012D000681579058A059B0528F0C616D706E80625
:1012E000F906A0F7FF90EF90DF90CF90BF90AF90FE
:1012F0009F908F9008954F925F926F927F92EF929E
:10130000FF920F931F93CF93DF93CDB7DEB7A197D3
:101310000FB6F894DEBF0FBECDBF7C01FA01CB0142
:1013200019A2223008F42AE08E010F5D1F4F422ED1
:10133000512C612C712CBF01A30192010E94431119
:10134000F901CA01015011096A3014F4605D01C04D
:10135000695CD8016C93232B242B252B61F7B801F2
:10136000C7010E945508A1960FB6F894DEBF0FBEC4
:10137000CDBFDF91CF911F910F91FF90EF907F90A4
:101380006F905F904F900895789484B5826084BD8B
:1013900084B5816084BD85B5826085BD85B5816079
:1013A00085BD80916E00816080936E0010928100F7
:1013B00080918100826080938100809181008160B2
:1013C0008093810080918000816080938000809173
:1013D000B10084608093B1008091B00081608093FF
:1013E000B00080917A00846080937A0080917A00C6
:1013F000826080937A0080917A00816080937A0085
:1014000080917A00806880937A001092C1001092D7
:10141000D4031092D5031092D6031092D7031092E2
:10142000920310929303109294031092950368EB29
:101430007BE080E090E00E94540987EE92E0909378
:10144000D3038093D2030E9495080E9437046093CF
:10145000920370939303809394039093950367E4AE
:1014600071E08091D2039091D3030E9455086AE005
:1014700070E080E090E00E94540981E08093A60330
:101480000E94950860E08EE00E94AA0360E081E17E
:101490000E94AA0363E070E08BE194E00E943807A9
:1014A00085E090E090931A048093190460911904E8
:1014B00070911A04693B710584F08BE194E00E94FD
:1014C000B5066FE070E080E090E00E94FD0380913F
:1014D000190490911A040597E5CF65E070E086E164
:1014E00094E00E94380785E090E090930501809396
:1014F0000401C0910401D0910501CA3BD1058CF4CF
:10150000BE0186E194E00E94B5066FE070E080E0E5
:1015100090E00E94FD032596D0930501C09304013D
:10152000E8CF62E082E00E94AA0360E08FE00E94C0
:10153000AA0360E080E10E94AA0361E084E00E94C7
:10154000AA0361E087E00E94AA0361E088E00E94AC
:10155000AA0360E088E00E947A0360E087E00E94CE
:101560007A0360E084E00E947A0383E090E0909345
:101570000C0180930B0161E089E00E94AA0361E005
:101580008CE00E94AA0361E089E00E947A0361E096
:101590008CE00E947A0320E042E060E18DEF93E06E
:1015A0000E94560660E080E00E94BD08C4E0D0E0E2
:1015B00069E571E08DEF93E00E94550867E771E0FF
:1015C00080E090E00E94FD038DEF93E00E94C30550
:1015D00062E671E08DEF93E00E94550867E771E0E5
:1015E00080E090E00E94FD038DEF93E00E94C30530
:1015F0006CE671E08DEF93E00E94550867E771E0BB
:1016000080E090E00E94FD038DEF93E00E94C3050F
:10161000219771F660E084E00E94BD0867E771E001
:101620008DEF93E00E94550860ED77E080E090E058
:101630000E94FD038DEF93E00E94C305C1E0D0E05E
:1016400092E0692E712C29EB222E312C35E0432EAD
:10165000512C42E3842E912CA12CB12C8FE00E94BE
:10166000E6038C0190939B0280939A0280E10E9492
:10167000E6037C019093990280939802E0EBF0E0FE
:101680008491ECE9F0E0D490E8E8F0E0C490CC205C
:10169000A9F081110E945103EC2DF0E0EE0FFF1F25
:1016A000E458FF4FA591B4918C91982F9D2131E082
:1016B00020E009F430E0832F922F02C080E090E018
:1016C000F1E08F27282F2170209397022091950217
:1016D000309196022115310509F094C32CEBE216E6
:1016E00022E0F20624F0D0939602C09395020536CC
:1016F00011052CF4D0930E01C0930D010EC00C3BCC
:1017000012402CF010920E0110920D0106C0892B90
:1017100021F070920E0160920D018EE00E94E603AE
:101720008C5291409093940280939302181619065C
:101730001CF01092920203C081E08093920281E13A
:101740000E94E6038C529140909391028093900204
:10175000181619061CF010928F0203C081E08093C6
:101760008F0200910D0110910E0160E00230110511
:1017700081F488E00E947A0361E087E00E947A03A6
:1017800060E084E00E947A03D0930C01C0930B01C7
:101790000FC087E00E947A0361E088E00E947A032C
:1017A00060E084E00E947A0310920C0110920B0119
:1017B00080918D0290918E02009731F460E089E073
:1017C0000E947A0361E007C0019741F461E089E07B
:1017D0000E947A0360E08CE00E947A0302301105D7
:1017E00009F0C3C080919202882309F45BC0809104
:1017F0000A01811157C08DEF93E00E94C30560E09C
:1018000080E00E94BD0860E871E08DEF93E00E94E7
:10181000550800910801109109010130110579F472
:1018200061E080E00E94BD086DE871E08DEF93E01B
:101830000E945508109307010093060110C0012B68
:1018400071F461E080E00E94BD0869E971E08DEF0C
:1018500093E00E94550810920701109206015092E1
:101860001A04409219046091190470911A046A3B99
:101870007105A4F48BE194E00E94B5066FE070E07E
:1018800080E090E00E94FD038091190490911A0479
:10189000059690931A0480931904E5CF81E0809314
:1018A0000A015EC080918F02811117C180910A01E7
:1018B000882309F412C18DEF93E00E94C30560E014
:1018C00080E00E94BD0865EA71E08DEF93E00E9420
:1018D000550800910801109109010130110579F4B2
:1018E00061E080E00E94BD086DE871E08DEF93E05B
:1018F0000E945508109307010093060110C0012BA8
:1019000071F461E080E00E94BD0869E971E08DEF4B
:1019100093E00E9455081092070110920601309240
:101920001A04209219046091190470911A04653008
:101930007105A4F08BE194E00E94B5066FE070E0C1
:1019400080E090E00E94FD038091190490911A04B8
:10195000059790931A0480931904E5CF10920A0119
:101960008DEF93E00E94C305B8C00130110509F066
:1019700058C080910A018111B0C08DEF93E00E94A0
:10198000C30560E080E00E94BD0862EB71E08DEF6E
:1019900093E00E94550880910801909109018130DF
:1019A000910579F461E080E00E94BD086DE871E086
:1019B0008DEF93E00E9455081093070100930601F4
:1019C00010C0892B71F461E080E00E94BD0869E9D4
:1019D00071E08DEF93E00E9455081092070110927C
:1019E000060150921A0440921904609119047091F2
:1019F0001A046A3B71050CF051CF8BE194E00E9410
:101A0000B5066FE070E080E090E00E94FD038091F9
:101A1000190490911A04059690931A04809319045E
:101A2000E4CF012B09F059C080910A01882309F401
:101A300054C08DEF93E00E94C30560E080E00E94F7
:101A4000BD0862EC71E08DEF93E00E9455080091B3
:101A50000801109109010130110579F461E080E07D
:101A60000E94BD086DE871E08DEF93E00E9455087B
:101A7000109307010093060110C0012B71F461E07F
:101A800080E00E94BD0869E971E08DEF93E00E945B
:101A90005508109207011092060130921A04209204
:101AA00019046091190470911A04653071050CF4E1
:101AB00055CF8BE194E00E94B5066FE070E080E0C6
:101AC00090E00E94FD038091190490911A040597FB
:101AD00090931A0480931904E4CF87EE92E00E9459
:101AE0009B008497C1F461E070E080E090E00E9488
:101AF000FD0387EE92E00E949B008133910529F45B
:101B000010928E0210928D0206C0C09721F4D093DD
:101B10008E02C0938D0280918D0290918E0200976B
:101B200009F061C08091080190910901892B09F0A9
:101B3000B9C08DEF93E00E94C30560E080E00E9491
:101B4000BD0820910A0180910D0190910E01222380
:101B500031F08230910549F462ED71E010C08230BD
:101B6000910519F46EED71E00AC08130910519F408
:101B70006AEE71E004C0892B31F46AEF71E08DEFF9
:101B800093E00E94550861E080E00E94BD086AE091
:101B900072E08DEF93E00E9455085092050140924B
:101BA000040100910401109105010A3B110594F410
:101BB000B80186E194E00E94B5066FE070E080E035
:101BC00090E00E94FD030B5F1F4F109305010093EF
:101BD0000401E7CF8DEF93E00E94C305D093090184
:101BE000C09308015FC0019709F05CC080910801B3
:101BF00090910901019709F055C08DEF93E00E9483
:101C0000C30560E080E00E94BD0820910A01809138
:101C10000D0190910E01222331F08230910549F49B
:101C200062ED71E010C08230910519F46EED71E043
:101C30000AC08130910519F46AEE71E004C0892B65
:101C400031F46AEF71E08DEF93E00E94550861E096
:101C500080E00E94BD0867E172E08DEF93E00E9492
:101C60005508309205012092040100910401109161
:101C700005010530110594F0B80186E194E00E9459
:101C8000B5066FE070E080E090E00E94FD03055033
:101C900011091093050100930401E7CF1092090187
:101CA0001092080120910A01809102019091030194
:101CB000222321F08D7F892BA1F103C00197029788
:101CC00080F180910D0190910E018230910538F4E0
:101CD0008091000190910101019749F422C002977F
:101CE00031F48091000190910101892BD1F0809114
:101CF0000801909109018130910541F4809106011C
:101D0000909107018D7F892B61F0A4C0892B09F088
:101D1000A1C080910601909107010197029708F0F8
:101D200099C08DEF93E00E94C30560E080E00E94BF
:101D3000BD0880910A0100910D0110910E018111E1
:101D40001BC00230110559F46EED71E08DEF93E088
:101D50000E94550810920301109202011AC0012B33
:101D600071F56AEF71E08DEF93E00E9455081092D3
:101D70000301109202011FC00230110579F462EDD7
:101D800071E08DEF93E00E945508D0930301C0935A
:101D90000201D0930101C093000111C0013011056F
:101DA00071F46AEE71E08DEF93E00E945508109394
:101DB000030100930201109201011092000161E001
:101DC00080E00E94BD0800910801109109010130D6
:101DD000110559F46DE871E08DEF93E00E9455080C
:101DE000109307010093060135C0012B99F569E9AD
:101DF00071E08DEF93E00E94550810920701109258
:101E0000060128C02130310529F58DEF93E00E94AD
:101E1000C305709203016092020160E088E00E94B5
:101E20007A0360E087E00E947A0360E084E00E9429
:101E30007A0343E050E050930C0140930B018091F2
:101E40009802909199028536910524F41092960299
:101E50001092950284EF91E0A0E0B0E080939E03A1
:101E600090939F03A093A003B093A1031092A203A9
:101E70001092A3031092A4031092A50380919603DD
:101E800090919703A0919803B091990380939A033E
:101E900090939B03A0939C03B0939D030E943704EF
:101EA000609396037093970380939803909399039C
:101EB0000E943704009192031091930320919403A0
:101EC00030919503DC01CB01801B910BA20BB30B6E
:101ED00082339105A105B10550F4A5019401281B99
:101EE000390B4A0B5B0BCA01B9010E9454090E94CD
:101EF00037046093920370939303809394039093B9
:101F000095030E9437046B017C0164E272E08091CA
:101F1000D2039091D3030E9455082AE041E050E09B
:101F200060E070E08091D2039091D3030E947B091E
:101F30006BE272E08091D2039091D3030E94550826
:101F40002AE0B701A6018091D2039091D3030E94A9
:101F50007B096DE272E08091D2039091D3030E94DD
:101F600055088091960390919703A0919803B091A2
:101F70009903B701A601481B590B6A0B7B0B2AE09A
:101F80008091D2039091D3030E947B096DE272E0AD
:101F90008091D2039091D3030E94550840919603FB
:101FA00050919703609198037091990380919A03DF
:101FB00090919B03A0919C03B0919D03481B590BEA
:101FC0006A0B7B0B2AE08091D2039091D3030E948D
:101FD0007B096FE272E08091D2039091D3030E945B
:101FE000550840918B0250918C020091D2031091C0
:101FF000D3036A01550FEE08FF08F7FE12C0D8019F
:10200000ED91FC910190F081E02D6DE2C801099500
:1020100044275527BA014C195D096E097F092AE04A
:1020200003C02AE0B701A601C8010E947B09009104
:10203000D2031091D30361E372E0C8010E945508F6
:1020400066E571E0C8010E94550865E070E080E037
:1020500090E00E9454090E943704609396037093A5
:102060009703809398039093990380910B0190912B
:102070000C018330910529F410928C0210928B028E
:1020800017C08130910529F490938C0280938B02C4
:102090000FC0009729F470928C0260928B0208C0E6
:1020A000029731F4E3E0F0E0F0938C02E0938B02CE
:1020B0000E945D01D3CA1092EA021092E90288EEF2
:1020C00093E0A0E0B0E08093EB029093EC02A09349
:1020D000ED02B093EE0223E131E03093E802209369
:1020E000E70225EC30E03093F4022093F30224EC75
:1020F00030E03093F6022093F50220EC30E030938C
:10210000F8022093F70221EC30E03093FA0220939A
:10211000F90222EC30E03093FC022093FB0226EC23
:1021200030E03093FE022093FD02109200031092E3
:10213000010310920203109203031092870310927E
:1021400086038093880390938903A0938A03B093B6
:102150008B0385E291E09093850380938403109232
:10216000960310929703109298031092990310927D
:102170009A0310929B0310929C0310929D0310925D
:102180009E0310929F031092A0031092A10310923D
:10219000A2031092A3031092A4031092A5038091AE
:1021A000FC038C30A0F491E0980F9093FC03809393
:1021B0001B0490E0FC01EE0FFF1F8E0F9F1FFC0120
:1021C000E852FC4F88EB9BE09283818303C08FEF42
:1021D00080931B0410921A04109219048091FC033E
:1021E0008C30A0F491E0980F9093FC038093160438
:1021F00090E0FC01EE0FFF1F8E0F9F1FFC01E852C5
:10220000FC4F88EB9BE09283818303C08FEF809328
:102210001604109200041092FF0387E391E090935C
:10222000FE038093FD0310920D048FEF80930C0446
:1022300010920B0410920E048FE380930804109206
:10224000090410920A04109207041092060484E014
:1022500080930F0482E08093100481E08093110446
:1022600080E18093120480E28093130480E48093E1
:10227000140480E88093150440E050E063E08DEFA3
:1022800093E00C944302A1E21A2EAA1BBB1BFD0192
:102290000DC0AA1FBB1FEE1FFF1FA217B307E40745
:1022A000F50720F0A21BB30BE40BF50B661F771F9D
:1022B000881F991F1A9469F760957095809590957D
:1022C0009B01AC01BD01CF010895052E97FB1EF4C3
:1022D00000940E947C1157FD07D00E94431107FC17
:1022E00003D04EF40C947C11509540953095219577
:1022F0003F4F4F4F5F4F0895909580957095619532
:102300007F4F8F4F9F4F08950E949711A59F900D6B
:10231000B49F900DA49F800D911D11240895B7FFC7
:102320000C9484110E948411821B930B0895A29F28
:10233000B001B39FC001A39F700D811D1124911D99
:10234000B29F700D811D1124911D0895991B79E094
:1023500004C0991F961708F0961B881F7A95C9F735
:1023600080950895EE0FFF1F0590F491E02D0994DC
:0E23700081E090E0F8940C94BD11F894FFCF3A
:10237E00010002000500020001000103000200003E
:10238E00000000F4006A088C003B01BD009B00AF0A
:10239E0000000000001402E4016502BE01DC01CD64
:1023AE0001BF010000000057026A08650264025670
:1023BE00064302DF02BE02564D4450565F317C3159
:1023CE005F564D4450560D0A004C6F6164696E673E
:1023DE002E004C6F6164696E672E2E004C6F616427
:1023EE00696E672E2E2E0057656C636F6D6521002A
:1023FE004D31203A20436C6F73696E67004D322069
:10240E003A20436C6F736564004D32203A204F7052
:10241E00656E6564004D31203A204F70656E696EB1
:10242E0067004D31203A20436C6F73696E67284602
:10243E0029004D31203A204F70656E696E6728462F
:10244E0029004D31203A20436C6F736564004D3185
:10245E00203A204F70656E6564004D31203A20435E
:10246E006C6F73656420284629004D31203A204F49
:10247E0070656E656420284629004D32203A20434F
:10248E006C6F73696E67004D32203A204F70656E27
:10249E00696E6700564D4450455F003A323A007CF3
:0824AE00005F564D445045004B
:107E0000112484B714BE81FFF0D085E080938100F7
:107E100082E08093C00088E18093C10086E0809377
:107E2000C20080E18093C4008EE0C9D0259A86E02C
:107E300020E33CEF91E0309385002093840096BBD3
:107E4000B09BFECF1D9AA8958150A9F7CC24DD24C4
:107E500088248394B5E0AB2EA1E19A2EF3E0BF2EE7
:107E6000A2D0813461F49FD0082FAFD0023811F036
:107E7000013811F484E001C083E08DD089C08234E0
:107E800011F484E103C0853419F485E0A6D080C0E4
:107E9000853579F488D0E82EFF2485D0082F10E0AE
:107EA000102F00270E291F29000F111F8ED06801E7
:107EB0006FC0863521F484E090D080E0DECF843638
:107EC00009F040C070D06FD0082F6DD080E0C81688
:107ED00080E7D80618F4F601B7BEE895C0E0D1E017
:107EE00062D089930C17E1F7F0E0CF16F0E7DF06D8
:107EF00018F0F601B7BEE89568D007B600FCFDCFD4
:107F0000A601A0E0B1E02C9130E011968C91119780
:107F100090E0982F8827822B932B1296FA010C0160
:107F200087BEE89511244E5F5F4FF1E0A038BF0790
:107F300051F7F601A7BEE89507B600FCFDCF97BE46
:107F4000E89526C08437B1F42ED02DD0F82E2BD052
:107F50003CD0F601EF2C8F010F5F1F4F84911BD097
:107F6000EA94F801C1F70894C11CD11CFA94CF0C13
:107F7000D11C0EC0853739F428D08EE10CD085E9AC
:107F80000AD08FE07ACF813511F488E018D01DD067
:107F900080E101D065CF982F8091C00085FFFCCF94
:107FA0009093C60008958091C00087FFFCCF809118
:107FB000C00084FD01C0A8958091C6000895E0E648
:107FC000F0E098E1908380830895EDDF803219F02E
:107FD00088E0F5DFFFCF84E1DECF1F93182FE3DFCA
:107FE0001150E9F7F2DF1F91089580E0E8DFEE27F6
:047FF000FF270994CA
:027FFE00040479
:0400000300007E007B
:00000001FF