:100000000C945D000C9485000C9485000C94850084
:100010000C9485000C9485000C9485000C9485004C
:100020000C9485000C9485000C9485000C9485003C
:100030000C9485000C9485000C9485000C9485002C
:100040000C9482030C9485000C9450030C942A03A6
:100050000C9485000C9485000C9485000C9485000C
:100060000C9485000C94850000000008000201003B
:100070000003040700000000000000000000000072
:10008000250028002B0000000000240027002A0083
:10009000040404040404040402020202020203032E
:1000A0000303030301020408102040800102040836
:1000B0001020010204081020CC0311241FBECFEF32
:1000C000D8E0DEBFCDBF11E0A0E0B1E0ECE1FCE0A4
:1000D00002C005900D92A831B107D9F721E0A8E13F
:1000E000B1E001C01D92A93DB207E1F710E0CDE5F6
:1000F000D0E004C02197FE010E940106CC35D10753
:10010000C9F70E9414040C940C060C94000090E0B3
:10011000FC01EC55FF4F2491FC01E057FF4F849107
:10012000882399F090E0880F991FFC01EA57FF4F50
:10013000A591B491FC01E458FF4F859194918FB73C
:10014000F894EC91E22BEC938FBF0895CF92DF925D
:10015000EF92FF920F931F93CF93DF936C017A017D
:100160008B01C0E0D0E0CE15DF0589F0D8016D919C
:100170008D01D601ED91FC910190F081E02DC60139
:100180000995892B11F47E0102C02196ECCFC7019D
:10019000DF91CF911F910F91FF90EF90DF90CF9063
:1001A0000895089580E090E00895FC01538D448DFA
:1001B000252F30E0842F90E0821B930B541710F012
:1001C000CF96089501970895FC01918D828D98171F
:1001D00061F0828DDF01A80FB11D5D968C91928D2B
:1001E0009F5F9F73928F90E008958FEF9FEF089528
:1001F000FC01918D828D981731F0828DE80FF11DF1
:10020000858D90E008958FEF9FEF0895FC01918D0B
:10021000228D892F90E0805C9F4F821B91098F7304
:10022000992708958EE291E00E94060121E0892B32
:1002300009F420E0822F0895FC01848DDF01A80FCE
:10024000B11DA35ABF4F2C91848D90E001968F73FE
:100250009927848FA689B7892C93A089B1898C911D
:1002600080648C93938D848D981306C00288F389E3
:10027000E02D80818F7D80830895EF92FF920F9310
:100280001F93CF93DF93EC0181E0888F9B8D8C8D42
:10029000981305C0E889F989808185FD24C0F62E70
:1002A0000B8D10E00F5F1F4F0F731127E02E8C8D09
:1002B000E8120CC00FB607FCFACFE889F9898081F3
:1002C00085FFF5CFCE010E941C01F1CF8B8DFE0181
:1002D000E80FF11DE35AFF4FF0820B8FEA89FB898B
:1002E0008081806207C0EE89FF896083E889F9898F
:1002F00080818064808381E090E0DF91CF911F91C5
:100300000F91FF90EF900895CF93DF93EC01888DCC
:100310008823C9F0EA89FB89808185FD05C0A88909
:10032000B9898C9186FD0FC00FB607FCF5CF80818F
:1003300085FFF2CFA889B9898C9185FFEDCFCE01D9
:100340000E941C01E7CFDF91CF91089580E090E0FB
:10035000892B29F00E94120181110C94000008954C
:1003600090E0FC01E859FF4F3491FC01EC55FF4F40
:100370002491FC01E057FF4FE491EE2309F43BC0C8
:10038000332339F1333091F038F43130A9F0323081
:1003900001F584B58F7D12C0373091F03830A1F06F
:1003A0003430B9F4809180008F7D03C0809180004B
:1003B0008F77809380000DC084B58F7784BD09C08E
:1003C0008091B0008F7703C08091B0008F7D8093C3
:1003D000B000F0E0EE0FFF1FE458FF4FA591B4917D
:1003E0008FB7F894EC91611103C020952E2301C0C2
:1003F0002E2B2C938FBF08953FB7F89480911D0149
:1004000090911E01A0911F01B091200126B5A89BDB
:1004100005C02F3F19F00196A11DB11D3FBFBA2F96
:10042000A92F982F8827820F911DA11DB11DBC01F6
:10043000CD0142E0660F771F881F991F4A95D1F7BB
:1004400008958EBD00000DB407FEFDCF8EB5089552
:100450000F931F93CF93DF93C82FD62F0BEC11E090
:1004600060E0F80182850E94B0018C2F880F8E77A2
:100470000E9421028D2F0E94210261E0F8018285F5
:10048000DF91CF911F910F910C94B0010F931F93A7
:10049000CF93C82F0BEC11E060E0F80182850E9439
:1004A000B0018C2F880F8E7780680E94210280E037
:1004B0000E942102C82F61E0F80182850E94B001EC
:1004C0008C2FCF911F910F9108951F93CF93DF939E
:1004D0001F92CDB7DEB7182F69830E94460269814B
:1004E000682B812F0F90DF91CF911F910C942802E0
:1004F0001F93CF93DF931F92CDB7DEB7182F698379
:100500000E944602698160956823812F0F90DF91D8
:10051000CF911F910C9428028F929F92AF92BF921D
:10052000CF92DF92EF92FF920F931F93CF93DF93BF
:100530001F92CDB7DEB75C01C62E4A01890167EF75
:1005400082E00E94280260E884E00E94780260E86D
:100550008AE00E94650260E081E00E942802750145
:10056000D12CC7018A199B098C159D0538F4F70118
:1005700061917F0189E00E942802F3CF6CE081E065
:100580000E94280260E88DE00E94650230EDC32ED3
:1005900037E0D32E84E00E944602F82EF1E0CF1A15
:1005A000D10811F08173B1F360E88DE00E94780208
:1005B000CD2811F482E03EC086E00E9446028B7195
:1005C000C9F78AE00E944602982F8CE099830E9426
:1005D000460287709981692F70E0882351F061503D
:1005E000710923E0660F771F2A95E1F7680F711DE7
:1005F00005C083E0660F771F8A95E1F7F8017183E4
:100600006083992321F0913118F090E101C091E0CD
:100610006401092F10E0C601881999098017910714
:1006200038F489E00E944602F60181936F01F3CF0E
:100630008F2D81700F90DF91CF911F910F91FF90BF
:10064000EF90DF90CF90BF90AF909F908F900895E4
:100650000E9407061F920F920FB60F9211242F933C
:100660003F934F935F936F937F938F939F93AF933A
:10067000BF93EF93FF938EE291E00E941C01FF91E4
:10068000EF91BF91AF919F918F917F916F915F910A
:100690004F913F912F910F900FBE0F901F90189583
:1006A0001F920F920FB60F9211242F938F939F9347
:1006B000EF93FF93E0913E01F0913F018081E09143
:1006C0004401F091450182FD12C090818091470163
:1006D0008F5F8F7320914801821751F0E09147019D
:1006E000F0E0E25DFE4F958F8093470101C080816D
:1006F000FF91EF919F918F912F910F900FBE0F90CF
:100700001F9018951F920F920FB60F9211242F93DE
:100710003F938F939F93AF93BF93809119019091D3
:100720001A01A0911B01B0911C013091180123E026
:10073000230F2D3720F40196A11DB11D05C026E819
:10074000230F0296A11DB11D20931801809319015A
:1007500090931A01A0931B01B0931C0180911D017D
:1007600090911E01A0911F01B09120010196A11D41
:10077000B11D80931D0190931E01A0931F01B093A2
:100780002001BF91AF919F918F913F912F910F9039
:100790000FBE0F901F901895CF93DF93EEE2F1E01C
:1007A0001382128288EE93E0A0E0B0E08483958308
:1007B000A683B78384E091E09183808385EC90E009
:1007C0009587848784EC90E09787868780EC90E01B
:1007D000918B808B81EC90E0938B828B82EC90E00C
:1007E000958B848B86EC90E0978B868B118E128E86
:1007F000138E148ECBECD1E08AE090E09B878A8741
:100800000E94870060E08A850E94B00189E00E9412
:10081000870061E089E00E94B00189E090E09D8757
:100820008C87DF91CF910895CF93DF93CDB7DEB75B
:1008300062970FB6F894DEBF0FBECDBF789484B533
:10084000826084BD84B5816084BD85B5826085BDCC
:1008500085B5816085BD80916E00816080936E005A
:10086000109281008091810082608093810080914C
:1008700081008160809381008091800081608093FD
:1008800080008091B10084608093B1008091B000BD
:1008900081608093B00080917A00846080937A00B8
:1008A00080917A00826080937A0080917A008160E2
:1008B00080937A0080917A00806880937A00109209
:1008C000C100E0913E01F0913F0182E08083E09120
:1008D0003A01F0913B011082E0913C01F0913D0121
:1008E00080E1808310924601E0914201F091430142
:1008F00086E08083E0914001F09141018081806138
:100900008083E0914001F091410180818860808383
:10091000E0914001F0914101808180688083E09105
:100920004001F091410180818F7D80831FB7F89451
:1009300080912101811124C0EAE9F0E08491EEEA7E
:10094000F0E09491E82FF0E0EE0FFF1FEA57FF4F21
:10095000A591B491EC91E92321F461E08AE00E9431
:10096000B0018AE00E9487008CB580618CBD8CB597
:1009700080648CBD8DE00E9487008BE00E94870020
:10098000809121018F5F809321011FBF61E08091E1
:10099000D7010E94B0016FE081E00E9428026DE85B
:1009A0008AE20E9428026EE38BE20E9428026EE136
:1009B0008DE20E94280260E08CE20E94280260E43E
:1009C00085E10E9428026DE381E10E94280284E112
:1009D0000E944602837021F463E084E10E94650274
:1009E00096E2792E23E9622E30E2532E45E0442E22
:1009F00050E5352E01E010E067E08DE00E9428020E
:100A000079829E012F5E3F4FAE014F5F5F4F61E0E5
:100A1000CA010E948C028111CAC089899A894097B3
:100A200009F0C5C060E08DE00E94280269825A8208
:100A30009E012F5E3F4FAE014F5F5F4F62E0CA01E4
:100A40000E948C0281110AC02A81998192272B81F0
:100A500092272C8192272D81921382E0FE013196FC
:100A6000ABECB1E0942D01900D929A95E1F78111D4
:100A700056C0ABECB1E0E4E2F1E08D9190E08193FF
:100A8000919321E0EE32F207C1F780912401909119
:100A900025018539910509F580912601909127015D
:100AA000833C9105E1F580912801909129018A3FCD
:100AB0009105A9F580912A0190912B01823C910525
:100AC00071F580912C0190912D018E36910539F5AB
:100AD000109323010093220122C0803D9105F9F477
:100AE0008091260190912701823E9105C1F4809169
:100AF000280190912901893A910589F480912A0170
:100B000090912B014B9759F480912C0190912D01DC
:100B10008038910521F410922301109222018091D6
:100B20002201909123018130910529F442E050E0A7
:100B300062E171E006C0892B41F442E050E065E1DA
:100B400071E08EE291E00E94A60039821A8264E090
:100B500085E00E94780260E88AE00E94650269816F
:100B600089E00E9428026A8189E00E94280263E0ED
:100B700081E00E942802FF24FA9485E00E94460248
:100B8000FA94FF2011F082FFF8CF82E20E94460221
:100B90008B8381E20E9446028C839E012F5E3F4F31
:100BA000AE014F5F5F4F64E0CA010E948C020E9459
:100BB000FC014B015C0188EEC82E83E0D82EE12CAD
:100BC000F12C0E94FC01DC01CB0188199909AA09CA
:100BD000BB09883E9340A105B10558F081E0C81AD1
:100BE000D108E108F10828EE820E23E0921EA11C34
:100BF000B11CC114D104E104F10419F70E94A6014B
:100C0000FBCEEE0FFF1F0590F491E02D099481E0DB
:0C0C100090E0F8940C940C06F894FFCFD0
:100C1C00000000003D01A600D50084010601E4009F
:080C2C00F8002430002431001F
:107E0000112484B714BE81FFF0D085E080938100F7
:107E100082E08093C00088E18093C10086E0809377
:107E2000C20080E18093C4008EE0C9D0259A86E02C
:107E300020E33CEF91E0309385002093840096BBD3
:107E4000B09BFECF1D9AA8958150A9F7CC24DD24C4
:107E500088248394B5E0AB2EA1E19A2EF3E0BF2EE7
:107E6000A2D0813461F49FD0082FAFD0023811F036
:107E7000013811F484E001C083E08DD089C08234E0
:107E800011F484E103C0853419F485E0A6D080C0E4
:107E9000853579F488D0E82EFF2485D0082F10E0AE
:107EA000102F00270E291F29000F111F8ED06801E7
:107EB0006FC0863521F484E090D080E0DECF843638
:107EC00009F040C070D06FD0082F6DD080E0C81688
:107ED00080E7D80618F4F601B7BEE895C0E0D1E017
:107EE00062D089930C17E1F7F0E0CF16F0E7DF06D8
:107EF00018F0F601B7BEE89568D007B600FCFDCFD4
:107F0000A601A0E0B1E02C9130E011968C91119780
:107F100090E0982F8827822B932B1296FA010C0160
:107F200087BEE89511244E5F5F4FF1E0A038BF0790
:107F300051F7F601A7BEE89507B600FCFDCF97BE46
:107F4000E89526C08437B1F42ED02DD0F82E2BD052
:107F50003CD0F601EF2C8F010F5F1F4F84911BD097
:107F6000EA94F801C1F70894C11CD11CFA94CF0C13
:107F7000D11C0EC0853739F428D08EE10CD085E9AC
:107F80000AD08FE07ACF813511F488E018D01DD067
:107F900080E101D065CF982F8091C00085FFFCCF94
:107FA0009093C60008958091C00087FFFCCF809118
:107FB000C00084FD01C0A8958091C6000895E0E648
:107FC000F0E098E1908380830895EDDF803219F02E
:107FD00088E0F5DFFFCF84E1DECF1F93182FE3DFCA
:107FE0001150E9F7F2DF1F91089580E0E8DFEE27F6
:047FF000FF270994CA
:027FFE00040479
:0400000300007E007B
:00000001FF